:020000040000fa
:080000000002040000000000f2
:020000040000fa
:10000800b4020000b4020000b4020000b402000010
:10001800b4020000b4020000b4020000b402000000
:10002800b4020000b4020000b4020000b4020000f0
:10003800b4020000b4020000b4020000b4020000e0
:1000480066b80000b4020000b4020000b402000068
:10005800b40200006eb80000b4020000b402000050
:10006800b4020000b4020000b402000048b8000066
:10007800b4020000b4020000b4020000b4020000a0
:10008800b4020000b4020000b4020000b402000090
:10009800b4020000b4020000b4020000b402000080
:1000a800b4020000b4020000b4020000b402000070
:1000b800b4020000b4020000b4020000b402000060
:1000c800b4020000b4020000b4020000b402000050
:1000d800b4020000b4020000b4020000b402000040
:1000e800b4020000b4020000b4020000b402000030
:1000f800b4020000b4020000b4020000b402000020
:10010800b4020000b4020000b4020000b40200000f
:10011800b4020000b40200005eb80000b40200009f
:10012800b4020000b4020000b4020000b4020000ef
:10013800b4020000b4020000b4020000b4020000df
:10014800b4020000b4020000b4020000b4020000cf
:10015800b4020000b4020000b4020000b4020000bf
:10016800b4020000b4020000b4020000b4020000af
:10017800b4020000b4020000e4850000b4020000ec
:10018800b4020000b4020000b4020000b40200008f
:10019800b4020000b4020000b4020000b40200007f
:1001a800b4020000b4020000b4020000b40200006f
:1001b800b4020000b4020000b4020000b40200005f
:1001c800b4020000b4020000b4020000b40200004f
:1001d800b4020000b4020000b4020000b40200003f
:1001e800b4020000b4020000b4020000b40200002f
:0801f800b4020000b402000093
:020000040000fa
:10020800b4020000b4020000b4020000b40200000e
:10021800b4020000b4020000b4020000b4020000fe
:10022800b4020000b4020000b4020000b4020000ee
:10023800b4020000b4020000b4020000b4020000de
:1002480066b80000b4020000b4020000b402000066
:10025800b40200006eb80000b4020000b40200004e
:10026800b4020000b4020000b402000048b8000064
:10027800b4020000b4020000b4020000b40200009e
:10028800b4020000b4020000b4020000b40200008e
:10029800b4020000b4020000b4020000b40200007e
:1002a800b4020000b4020000b4020000b40200006e
:1002b800b4020000b4020000b4020000b40200005e
:1002c800b4020000b4020000b4020000b40200004e
:1002d800b4020000b4020000b4020000b40200003e
:1002e800b4020000b4020000b4020000b40200002e
:1002f800b4020000b4020000b4020000b40200001e
:10030800b4020000b4020000b4020000b40200000d
:10031800b4020000b40200005eb80000b40200009d
:10032800b4020000b4020000b4020000b4020000ed
:10033800b4020000b4020000b4020000b4020000dd
:10034800b4020000b4020000b4020000b4020000cd
:10035800b4020000b4020000b4020000b4020000bd
:10036800b4020000b4020000b4020000b4020000ad
:10037800b4020000b4020000e4850000b4020000ea
:10038800b4020000b4020000b4020000b40200008d
:10039800b4020000b4020000b4020000b40200007d
:1003a800b4020000b4020000b4020000b40200006d
:1003b800b4020000b4020000b4020000b40200005d
:1003c800b4020000b4020000b4020000b40200004d
:1003d800b4020000b4020000b4020000b40200003d
:1003e800b4020000b4020000b4020000b40200002d
:0803f800b4020000b402000091
:020000040000fa
:100400000fdd21000e7f24000e0188000000000097
:1004100000012000200288000c00070080cd2b0086
:100420000100200011000700000020000000e00093
:1004300002003200000002000000000012b30200bf
:10044000000000000040da000000fe004440a90067
:10045000801e20000000e0000300320000002000a9
:10046000a00188004440a800000006009101880017
:10047000800078000000eb0015003700e2804000ab
:1004800032a0b4009101ba00e280400032a0b40072
:100490009102ba00e280400032a0b4000002eb00fa
:1004a000472bde00f507b200602ce10004003a00a3
:1004b0000059eb008301e900fdff3e000400370016
:1004c0006128e100010032000082eb000400070017
:1004d0001101ba000200e000e8ff3a000000060047
:1004e0003159ba008301e9000c0032002159ba00e9
:1004f0008301e900080032000400e00003003a0034
:10050000e280400032a0b400f5ff370011d9ba00f4
:100510008301e900faff3a008100e800e180400031
:1005200032a0b4000000060074b404000000000013
:100530006ca9040000000000f8a104000000000005
:10054000eea1040000000000e4a10400000000008f
:100550005ca304000000000052a80400000000009a
:10056000f2a70400000000000040da000000fe00d6
:10057000800078001104b100030035009101b10042
:1005800001003c000050a000000006008000780040
:100590001106b100030035009101b10001003c00db
:1005a0000050a100000006000000fa009540a900dc
:1005b00041e2a9008540a9000080fa000000060081
:1005c0000000fa009820a90061e2a9008820a90093
:1005d0000080fa00000006000600fa00000f780014
:1005e00011079800220798001e0278001413880053
:1005f0001e029000241388002e029000041388002d
:100600000080fa00000006000000fa005408800094
:10061000040078000080fa00000006000000fa00e4
:10062000143a8000040378000610a000640420003f
:100630007505200027742000844b7800854b7800d6
:10064000864b78000002eb003431880035318000a1
:100650000400280004826200e00f5200070032000c
:10066000353180000400220004826200e00f520055
:1006700001003a00c400070027e6a90027a6a90048
:100680000080fa00000006000a00fa004007980007
:1006900035318000f4cf2f000482620034318800ad
:1006a000353180000430200004827200343188002b
:1006b000253180004e029000050a78002531800027
:1006c0004e02900015029800253180004e029000e5
:1006d00025029800253180004e02900035029800d6
:1006e00035318000f4cf2f0004826200343188005d
:1006f00035318000043020000482720034318800db
:1007000024318000040f7800243180001407980001
:100710002431800024079800243180003407980099
:100720004e029000e44290006e42900084cf52004e
:10073000d7ff3a000080fa00000006001000fa001f
:1007400060079800710798000002eb00040f780022
:100750006e029000f442900094c5b30084cf520022
:1007600024003e006e029000e442900094c5b30065
:1007700084cf52001f003e006e0290005442900051
:10078000e64f52001b003e006e029000c4429000f3
:1007900044c2b30084cf520016003e006e029000a7
:1007a00034429000f24f520012003e006e02900060
:1007b00034429000e04f52000e0032006e02900072
:1007c000a442900014c3b30084cf520009003e003d
:1007d0006e02900024429000e04f5200050032006b
:1007e0006e0290009442780094c9b30084cf520006
:1007f000020036000002eb00600037007e0290002d
:10080000e00f52000e003200140280004522de008c
:1008100067426200244798009402800024079800f1
:10082000ff3ffc00140280000450a0000460a00000
:100830000470a000140288002e0290009402880028
:10084000343180004d22de00614262000482fb00f0
:10085000340798003e029000e00f520001003a0079
:1008600049000700343180004f22de000442780046
:100870000482fb00440798004e029000e00f5200f3
:1008800006003200143180004f22de00044278005e
:100890000482fb00040f780027e6a90035318000b0
:1008a000f4cf2f000482620034318800353180009b
:1008b0000430200004827200343188006e029000ff
:1008c00014027800243188006e0290001402900017
:1008d000243188006e0290002402900024318800a8
:1008e0006e02900034029000243188004e02900085
:1008f000e00f52000a00320027e6a8001e0278002e
:10090000e00f52000100320023e6a8003e029000f2
:10091000e00f5200060032001b0007000400370001
:100920003e029000e00f520001003a0027a6a90005
:100930007e029000e00f52000f003200940280000f
:1009400054079800ff3ffc002e429000674262006f
:100950000482fb00670262004522dd00160280006f
:10096000f5f12f00850263000482720014028800f2
:100970005e029000940288001400200004007800b9
:100980000080fa00000006000600fa00881f7800c8
:10099000140280004522de0067426200044f7800a6
:1009a0009402800014079800ff3ffc0014028000ae
:1009b0000450a0000460a0000470a000140288008d
:1009c0001e0290009402880058052000383b8800e1
:1009d000a80a2000383b880027a6a80094028000bf
:1009e00024079800ff3ffc009e42780067c2620027
:1009f0000482fb00670262004522dd0016028000cf
:100a0000f5f12f0085026300048272001402880051
:100a10002e029000940288004f0478000080fa00b3
:100a2000000006000200fa00000f78008500a9000f
:100a30001e0278000442780067426200674262004a
:100a4000674262000482fb00670262004605800084
:100a500085ff2f0085026300048272004405880030
:100a60009e027800688262004322de000442780021
:100a7000614262000482fb00610262004822dd00e4
:100a8000a6048000f5ef2f00850263000482720047
:100a9000a40488000080fa00000006000400fa00a8
:100aa000000f7800110798000002eb00540888003e
:100ab0001e029000740888001e02780094088800c6
:100ac0000080fa00000006000000fa009500a9006e
:100ad00013e1a9008500a9000080fa0000000600cb
:100ae0006022b800060220000000d0008180d20001
:100af0000482d2008582d2000000a00002025200cf
:100b000083825a00030031000202420083824a00bd
:100b10000000a1000603e900f3ff3a000000060010
:100b2000efff07000400be0000000600889fbe0023
:100b30008a9fbe003004be002005be0004044400ad
:100b400085844c0006054d0087854d000898be0041
:100b50000a90be000440e10005c8e10006d0e100b3
:100b600007d8e10002003100680040001008e800ea
:100b70004f05be004f04be00000006001000fa0042
:100b8000889fbe008a9fbe000605be000404be000a
:100b90003002be002003be00c4b79f00d5b79f003f
:100ba000e6b79f00f7b79f000802520089825a00fb
:100bb0000a035b008b835b0084bf9f0095bf9f008f
:100bc000a6bf9f00b7bf9f000498be000698be0056
:100bd000110020004fb29700dfb297006fb397006b
:100be000ffb397000820e10009a8e1000ab0e10086
:100bf0000bb8e100010039008000eb001088100004
:100c00004f05be004f04be000080fa000000060041
:100c10001400fa00889fbe008a9fbe008c9fbe0011
:100c20003f0007000605be000404be000006eb00fe
:100c3000ccb79f00bcb79f00acb79f009cb79f008c
:100c40008cb79f000d0420004fb39700bfb29700f0
:100c5000860343002fb29700e00f530004003d00cd
:100c60003d0007000f004000b0ff07000300370001
:100c7000390007000f004000c0ff0700cfb2970007
:100c800095bf9f00e08f5200090035002b00070040
:100c900014002000050020006033b800000072003e
:100ca0008180720002017300838173001c000700c1
:100cb0000c06e8008d0f5600e3ff3a001fba9700bc
:100cc000e00f520005003d000802be000a03be000e
:100cd00000fe2f000f00400094ff07004faa97006e
:100ce000e00f520008003a000fb497009fb497003d
:100cf0002fb59700bfb59700d8b79f00e9b79f0001
:100d0000fab79f008bbf9f000c0007004f06be0084
:100d10004f05be004f04be000080fa000000060030
:100d2000010007000000060090b79f00a1b79f00d8
:100d3000b2b79f00c3b79f00000006000100070084
:100d4000000006001fb09700afb097003fb19700ba
:100d5000cfb19700000006004f2bde008703730021
:100d6000a7b79f004f23de008582420085027300f3
:100d700095b79f00ffaa97004f2bde0004024200a8
:100d80000402730084b79f006faa97004f23de0010
:100d90008582420085027300f5af9f00e9ff0700de
:100da0004f18de000402420000027200e4af9f0010
:100db000e4ff070000004000818048000201490074
:100dc00083814900d8ff07000802be000a03be0065
:100dd00000fe2f0000000600881f78001800200089
:100de000881f78008aff07008f87e9004f0478008a
:100df00000000600801feb0085ff07008f87e900d9
:100e000000000600889fbe008a9fbe00e00f5000d1
:100e1000e08f5800e00f5900e08f59000c003d00b2
:100e20006044b8006055b8000000540081805c0048
:100e300002015d0083815d0018002000150007009d
:100e400008003d00180007000004eb000500370013
:100e50000004eb000f00070002003d001200070035
:100e600018002000dcff0700e00f540006003200ed
:100e70006022b8006033b8000000520081805a0040
:100e800002015b0083815b004f05be004f04be0082
:100e900000000600e00f5200e08f5a00e00f5b00f8
:100ea000e08f5b00000006006044b8006055b800a9
:100eb0000402540085825c0006035d0087835d00a8
:100ec00000000600889fbe008a9fbe008c1f78002d
:100ed000e00f5000e08f5800e00f5900e08f5900fc
:100ee0000d003d006044b8006055b800000054009b
:100ef00081805c0002015d0083815d001c00200098
:100f00000820e10009a8e1000ab0e1000bb8e10007
:100f10000d003d00080037000006eb00e00f520016
:100f2000e08f5a00e00f5b00e08f5b0006003d00a1
:100f30006044b8006055b8000402540085825c002b
:100f400006035d0087835d00aaff0700e00f5600df
:100f5000060032006022b8006033b8000000520082
:100f600081805a0002015b0083815b004f0678009c
:100f70004f05be004f04be000000060000027800ce
:100f800002003700315a78000201e900e00f5100f9
:100f9000fcff3a0000000600000278000200370063
:100fa000015a78000201e900e00f5100fcff3a000d
:100fb00000000600000278008042eb00b4cf12006f
:100fc000fdff3a000080ea00000042000000060039
:100fd00000027800060037000201e9003143780082
:100fe000065a780084027800e04f53000600320071
:100ff00084027800e00f5100f7ff3a00020037004a
:10100000805aeb000201e900e00f5100fcff3a00ba
:10101000000006000c00fa00889fbe000004780063
:10102000f4ff2700d4bf9f008004eb0099bf9f000e
:1010300088bf9f00a8bf9f00240c2000b4bf9f0062
:1010400078815700cfb097007080570007000700e5
:101050000fba9700094a78000fba970008005200ab
:101060004f04be000080fa00000006002f03b0000d
:10107000889fbe008a9fbe008c9fbe008e1f780096
:10108000e0af9f00c1af9f00b2b79f008006eb00aa
:101090006e023700cfa897008100e800c1af9f0023
:1010a00054c2b300844f500006003a000102780099
:1010b0000006eb0001c3b30000c2b300b7c2b30027
:1010c000070037000000fb00efa89700860207002a
:1010d000e10f40005d0232008d06e8005b02370040
:1010e0008402780034437800d2c2b300824f5300a8
:1010f0000900320005003c00804f53000800320018
:10110000874f53000c003a0007003700814f53000f
:1011100009003a00060037000c30a000f0ff37004d
:101120000c00a000eeff37000c10a000ecff370011
:101130000c20a000eaff37006202660001003200c6
:101140000c00a10068026600010032000c20a10022
:101150000602fb000403b100e90f52000c003e0040
:10116000050378000002eb006a22b900b603fb0019
:101170000703b10004824300860278009603fb0057
:101180000703b100e98f5300f7ff3600080037006e
:101190000002eb00a7c2b300874f530004003a00df
:1011a000bfb1970043027800b3b79f008502e80003
:1011b0000007eb00e6c2b300954f13000a003a00a7
:1011c0000ce0a00064435300d54f1300020032002e
:1011d00005037800080037003fb397004607780002
:1011e000b6b79f008502e8000503780008003700c5
:1011f0006a70b9000087430086027800b603fb00de
:101200000703b100e98f5300f9ff3600f6ff3700fe
:10121000b6427800c6af9f00c0c6b30080cf520070
:10122000250032000f003c0036c6b30086cf5200c6
:101230006e00320004003c00e0cf52000802320091
:101240006b4353000f00370046c6b30086cf5200f1
:10125000170032006543430086cf520083003a00f6
:101260001300370036c7b30086cf52001f0032008c
:1012700007003c006443530086cf52001400320044
:101280000643e80086cf520078003a00130037008a
:1012900056c7b30086cf5200790032006343430043
:1012a00086cf520071003a00a5c79f000d0037009d
:1012b000a5c79f0074003700f003660005012000f9
:1012c000010032000500280005067600d0ff370037
:1012d000a5c79f000c60a0006b003700a5c79f004a
:1012e0000c50a0000c70a00067003700a5c79f003d
:1012f000bfb09700c1027800b1b79f000504780025
:10130000e08f520001003a0028da2100080378003b
:101310008002eb00010037008502e800e6c37a0096
:10132000e0cf5300fcff3a0085047800e00f57003f
:1013300003003200890f5700010031008e0478004d
:101340000007eb00890f5200010036000907520028
:101350006806660014003a0007003700efa89700ff
:1013600000022000e0010700e10f40000100320010
:101370008d06e8000e07e900e00f5700f7ff3a007e
:101380000087eb0008003700080278003400fb00fb
:1013900004047800efa89700d3010700e10f400094
:1013a000010032008d06e800090278008404e9009b
:1013b000e00f5200f4ff3a00e00f5600a3013200a4
:1013c00007003700efa8970000022000c6010700c1
:1013d000e10f4000010032008d06e8000e07e90031
:1013e000e00f5700f7ff3a00980137003fb1970030
:1013f000c2027800b2b79f0005007800cf80de00ff
:101400000101780082017800f0af9f0081b79f0052
:1014100092b79f00a3b79f004800de00c80add0016
:1014200000807200a0c79f007003660009003200b0
:10143000e04f500007003200e14f4000050032004d
:10144000b0c79f006fdb9700c6c79f002900200030
:1014500003003700efdb9700b7c79f00190020009b
:1014600038fc2f000f044400b0ff3700a5c79f00d1
:1014700028fc2f000f04440019002000abff3700a8
:10148000a5c79f000c0cb3008c027800050cb200bd
:101490002b003a00e00f560005003d003fb09700da
:1014a0004005be004004be00b0b79f0017003700e3
:1014b000f00266000f003200bfb297004501be0087
:1014c000b5b79f00c2a79f00d3a79f000503780070
:1014d00096029000cfaade00e5a79f00f5a79f0027
:1014e0004fa49700dfa497006fa59700ffa5970072
:1014f000060037003fb0970040047800b0b79f0067
:10150000cfc4de00090578008a057800e00f54009a
:10151000e08f5c00e00f5d00e08f5d0025003d0086
:101520003c00b3006000b8006011b800080450002f
:10153000898458000a0559008b8559001d00370021
:10154000e00f560005003d00bfb097004105be000a
:101550004104be00b1b79f0016003700f0026600dc
:101560000e003200bfb297004501be00b5b79f0024
:1015700082af9f0093af9f000003eb00a6af9f00d8
:101580008003eb00b7af9f000fac97009fac9700b4
:101590002fad9700bfad9700060037003fb0970012
:1015a00040047800b0b79f00090020000a00200026
:1015b0000b002000e00f570007003a001e0020003b
:1015c000e00f5400e08f5c00e00f5d00e08f5d00f5
:1015d000010032000007eb008c007800010cb20023
:1015e000f1af9f0005042000858f50002c003200d1
:1015f00003003c00e08f5000080032003c00370040
:10160000050820007fa99700850f510010003200c7
:10161000050c2000850f510035003a00e6c5210079
:1016200015c0b3003600be003601be000040e10028
:1016300001c8e10002d0e10003d8e1002b0039002d
:101640008542e800f4cf5200f6ff3a002700370049
:1016500015c0b30000012000010020006011b80097
:101660000040e10001c8e10002d0e10003d8e10040
:101670001e003900460020000000d0008180d2000a
:101680000281d2008381d2000603e900faff3a000a
:101690008542e800f0cf5200f1ff3a001300370016
:1016a00015c0b30080002000010020006011b800c8
:1016b0000040e10001c8e10002d0e10003d8e100f0
:1016c0000a003900370020000000d0008180d200dd
:1016d0000281d2008381d2008703e900faff3a0039
:1016e0008542e800f5cf5200f1ff3a00a5c79f0000
:1016f0002fc097008002fb008e8f520002003d0039
:10170000aec79f0003003700850f570001003d0062
:1017100005077800e00f520003003200e302660084
:10172000010032000402e900050024008502660081
:10173000050032008e0f5200020034000e025200eb
:10174000010037000002eb002fc197008202fb006e
:101750008001eb00d3af9f00850f520002003400e0
:1017600085025200d5af9f00640266002c00320053
:10177000e202660061026600e08f5200060032005d
:10178000b0022000e00f5200010032000080e800ab
:10179000efa8970004003700e00f52000600320067
:1017a000efa8970000022000cf000700e10f4000e3
:1017b000010032008d06e8005faa9700e00f52009a
:1017c0008d0032000802be000a03be00dfac9700a5
:1017d000efa8970000032000c4b79f00d5b79f0073
:1017e000e6b79f00f7b79f00bf0007004fb2970012
:1017f000dfb297006fb39700ffb39700e10f40008f
:10180000010032008d06e8008904e900f0ff3a008b
:10181000d9af9f000605be000404be007600370065
:10182000dfaa9700e08f52001800320068026600bd
:1018300016003a000802be000a03be00dfac9700a3
:10184000efa8970000022000c4b79f00d5b79f0003
:10185000e6b79f00f7b79f00a30007004fb29700bd
:10186000dfb297006fb39700ffb39700e10f40001e
:10187000010032008d06e8008904e900f0ff3a001b
:10188000d9af9f000605be000404be00e202660058
:1018900061026600e08f520006003200b0022000b4
:1018a000e00f5200010032000080e800efa897002e
:1018b00004003700e00f52004f003200efa89700fd
:1018c0000002200088000700e10f40004a003200bb
:1018d0008d06e800480037000e07e9007fab97004f
:1018e00007042000870f53002d00320003003c0046
:1018f000e00f5300080032003700370004082000d2
:101900007fae9700840f560012003200040c2000b6
:10191000840f560030003a004372dd0060c521009c
:10192000000242005403be004402be000800be0094
:101930000a01be0028fd0700a400200005002000c9
:101940006033b8002bfd070004c3b300044240001d
:101950002000370014d92100bfa29700e08f520069
:101960000100320004d82100c272dd000800be0070
:101970000a01be008502e900050033008301d100a1
:101980000281d3008180d3000080d300f9ff3700ab
:101990006f00600064407800a0c79f000e00370011
:1019a0006372b9000800be000a01be000406780098
:1019b0000c06e900050033008301d1000281d30049
:1019c0008180d3000080d300f9ff370067426000b8
:1019d0000443b000a4c79f00afc097000100fb0004
:1019e000efa8970040000700e10f4000060032001a
:1019f0008d06e800040037000c0178000202b200f6
:101a0000b2a79f008cbf9f00e00f5700b2ff3a00c3
:101a10000fbe9700680666000c003200dfa9970031
:101a2000e08f51000900340003067800efa897000a
:101a3000000220002c000700e10f400001003200ee
:101a40008d06e8000c06e900f8ff3a004faa97005f
:101a500014407800a0c79f00e04f50008dfd3a0071
:101a60000d0078004f0778004f06be004f05be00fe
:101a70004f04be002f03b100000006000000fa0072
:101a8000e88157004fb99700020007000080fa0074
:101a9000000006000c00fa000002780082027800c4
:101aa0000000eb00e18f50000d0036008100e900de
:101ab000f1bf9f00b0bf9f00a4bf9f00c4bf9f00a5
:101ac000240c2000d4bf9f0003017800850078001b
:101ad0006c80570065fd07002fba9700004aeb00a5
:101ae0000080fa0000000600889fbe000104780014
:101af00038029000e20262008084eb003b0032007a
:101b0000040378000620b2009802900002003a0018
:101b1000e08f520035003a000490a0003404980091
:101b200080047800f90fb200e08f520002003a0002
:101b3000a8029000050c7800ea8f540005003a00d6
:101b40000408b20003003a0088007800d0002000aa
:101b5000e5ff070018029000d8029000850f5200a0
:101b60000b0032000402e800140498001802780008
:101b7000094a7800040ce80015c0b30044bf2100f6
:101b8000054a7800ea8f540018003a000500370033
:101b9000880078000940780017000700800478006a
:101ba00012003700380290000410b2000f0032001b
:101bb00018019000a8009000480090005200070013
:101bc00018029000840f5000040032003802900088
:101bd0000403b300340498008084eb000002eb009f
:101be0001404980028029000040c78000900780082
:101bf0004f04be00000006000200fa00889fbe00ed
:101c0000a0ff9f0001047800380290008402780051
:101c10000504b200020032000000fb00350037006e
:101c2000e202620005003a000403b30034049800a5
:101c3000150498000080eb002e003700d8049000b7
:101c4000e08f540006003a0012002000e6805700a2
:101c5000480090002c00070019049800230037006a
:101c6000a8029000e08f520008003a0075bf2100e2
:101c700025049800050c78002500200055049800e4
:101c8000150498000430a000340498001801900056
:101c9000a8009000480090001b0007002802900058
:101ca0008082eb0015049800affa9700054a78008f
:101cb000040ce8002ffa9700ea4f52000b003a009c
:101cc000380290000410b2000800320018019000a1
:101cd000a8009000480090000b0007000002eb00f5
:101ce00014049800a8029000050c78002ffa9700c1
:101cf0000400fb004f04be000080fa000000060054
:101d000000c0da00000006000a00fa00e20f5000ee
:101d100022003e0034b98000e10f5200060032007c
:101d200087232000462320002423200005232000b1
:101d3000e08f530004003a00872220004622200052
:101d40002422200005222000000028001500600049
:101d500003003a00800b780007002800958a730082
:101d6000054020009482620001003a0014a0a00007
:101d70008202780006003700940378000710b20052
:101d8000fdff3200b103fb00070b78008502e9007c
:101d9000e08f5200f8ff3a000800370034002000be
:101da000b4bf9f00c0bf9f00d1bf9f00e2bf9f0094
:101db0006a805700d2ff07006fb9970002007800d1
:081dc0000080fa00000006009b
:020000040000fa
:101dc8001201000000020000ef02000001080000fc
:101dd800d8040000570000000100000001020000c4
:101de8000001000009020000620000000301000079
:101df80002c00000320900000400000000020000d8
:101e080008060000500000000705000081020000dd
:101e1800400000000107000005010000024000002a
:101e280000010000080b000001020000020200008f
:101e38000100000009040000010000000102000088
:101e4800020100000005000024000000200100003d
:101e5800042400000202000005240000060100001e
:101e68000205000024010000000200000705000030
:101e7800820300000a0000000209000004020000ba
:101e8800000200000a000000000000000705000032
:101e98000302000040000000000700000583000066
:101ea80002400000000000000403000009040000d4
:101eb800340300004d0000006900000063000000ca
:101ec800720000006f00000063000000680000005e
:101ed80069000000700000002000000054000000ad
:101ee8006500000063000000680000006e0000004c
:101ef8006f0000006c0000006f0000006700000029
:101f08007900000020000000490000006e00000079
:101f1800630000002e0000003a0300004d0000009e
:101f28006900000063000000720000006f000000fc
:101f380063000000680000006900000070000000f5
:101f480020000000430000006f0000006d0000004a
:101f5800700000006f0000007300000069000000be
:101f6800740000006500000020000000440000002c
:101f780065000000760000006900000063000000b2
:101f8800650000000000000000000000f68e000060
:101f9800588f00005c8f0000908f000000950000b3
:101fa800000000000000000001f90000000000002f
:101fb8000000000008870000040000000000000086
:101fc80009af000000000000010000000a1b00002b
:101fd80000000000010000000cc300000100000028
:101fe800000000000daf000002000000000000002b
:101ff80010ff0000000000000000000011ff0000ba
:10200800000000000100000012ff000000000000b6
:102018000100000018ff000000000000010000009f
:1020280019ff0000000000000100000020ff000070
:10203800000000000000000021ff00000000000078
:102048000000000026df0000010000000000000082
:102058003773000000000000000000003a2500006f
:1020680004000000000000003b2500000000000004
:102078000000000029ff000004000000000000002c
:1020880017ff0000000000000000000000800000b2
:102098000402000020000000000000004d6900005c
:1020a800637200006f630000687000004d610000fb
:1020b8007373000020530000746f00007261000009
:1020c800676500002020000020200000303000005c
:1020d80030310000257800002e250000782e000001
:1020e8002578000020200000257800002d2500001c
:1020f800782d0000257800002e630000737600001c
:1021080000770000007800002c7900002c7a00008d
:102118002c680000722c00006d6900006e2c000015
:1021280073650000632c00006d7300006563000098
:102138000a0000000000000025340000692c00009f
:1021480025340000692c000025340000692c0000ab
:10215800257800002c250000782c00002578000048
:102168002c250000750a0000000000003031000036
:1021780032330000343500003637000038390000ab
:1021880061620000636400006566000000000000f2
:020000040000fa
:102198000200fa000002eb00040f78000500370087
:1021a800848720009e02420014c0b300844a78004d
:1021b8001e0fe8001e027800e10f5200f8ff3400fd
:1021c8000042eb00044078004efcb7000042eb00f0
:1021d8000440780044fcb7000082eb008082eb00ea
:1021e80004e2880015e288000082eb008082eb00a0
:1021f80044e2880055e288008148070040f5200045
:102208007807070000427800e04f520005003a00c6
:102218000042eb000440780098eeb700140020005c
:10222800010037000002eb00040078000080fa008b
:10223800000006006000fa00881f7800502f980000
:10224800612f980062df980073df98005e2a900083
:102258007412900044179800b4002000040f78000e
:10226800e4c72000640f98006e2a90005410900074
:10227800700f98000002eb00440798000002eb0082
:10228800540798000002eb00740798000002eb0066
:10229800040f98000002eb00340f98000042eb0096
:1022a800245f98000042eb00046798006e2a9000b3
:1022b80064129000d47b8800d47b8000e00f520029
:1022c80017003200d57b8000d400200011000900df
:1022d8008482d8000102780004679800d57b8000ca
:1022e800d4002000110009008482d8000002780080
:1022f800444798000e629000e04f520003003a00f5
:10230800d47b8000ec0f520003003e004e42900048
:102318000442e800444798004e429000245f980029
:102328005e2a9000b41a9000241a90005e2b900048
:10233800441b9800551b98006e2a9000141b9000af
:10234800060278000482ea008582ea0014179800e1
:102358004e129000e00f52000c003a008402200058
:102368000e02420012c0b300840078005e2890007c
:102378000118070000027800e00f520012003a002e
:10238800b4012000040f78000f0037004e129000af
:102398006f026200e00f52000b003200840220003e
:1023a8000e02420012c0b300840078005e2890003c
:1023b800f117070000027800e00f520002003a000f
:1023c800b4012000040f78001e027800fb0f5200b1
:1023d800e40532001e027800e00f5200de053200ec
:1023e8000002eb00140f98000002eb00240f980085
:1023f800850220008e824200a40220000e024200c4
:1024080005017800840078005e289000f720070016
:1024180000427800446798004e629000e24f5200f4
:10242800cf0532004e629000e04f5200ba053a00e4
:102438005e729000ef4f52001b0032000002eb006a
:10244800040f98002e6a9000ee0a9000844a7800e3
:102458000042eb00444798000d0037004e429000c0
:102468000482fb000402e800ee0a90008482420025
:102478004e4290000482fb0004024700346a900038
:10248800844a78004e4290000442e800444798008d
:102498004e429000e94f5200f0ff36001400200031
:1024a800140f9800790137002e6a90008482fb008f
:1024b8000404200004826200e00f5200d9003200b8
:1024c8002e6a90007f426200546798007eda90007e
:1024d800e04f520011003a00d47b8000e00f520018
:1024e80004003200de6290002e5a900084cf520021
:1024f80006003a00d47b8000e00f520007003a0043
:102508005e629000e14f5200040032004e129000cb
:102518000402e800441798008e0537002e6a9000e0
:102528008482fb00f40b2000048262006d22b90053
:10253800040278000402e90044079800ce029000e3
:1025480035079800ce2290004e0290000403420006
:10255800e4c7200004024300050a78004e029000f8
:102568000402e90044079800be2290004e02900041
:1025780004034200e4c7200004024300050a78006f
:102588004e0290000402e900440798009e22900041
:102598004e02900004034200e4c7200004024300f6
:1025a800050a78004e0290000402e90044079800ea
:1025b8008e2290004e02900004034200e4c72000df
:1025c80004024300050a78004e0290000402e90064
:1025d80044079800fe1a90004e029000040342003f
:1025e800e4c7200004024300050a78004e02900068
:1025f8000402e90044079800ee1a90004e02900089
:1026080004034200e4c7200004024300050a7800de
:102618004e0290000402e90044079800de1a900078
:102628004e02900004034200e4c720000402430065
:10263800050a78004e0290000402e9004407980059
:10264800ce1a90004e02900004034200e4c7200016
:1026580004024300050a78004e0290000402e900d3
:10266800440798003e72900024cf98004e72900064
:1026780034cf9800de2290004e02900004034200fe
:10268800e4c7200004024300050a78004e029000c7
:102698000402e900440798001e72900024cf9800b5
:1026a8002e72900034cf9800de2290004e029000e7
:1026b80004034200e4c7200004024300050a78002e
:1026c8004e0290000402e900440798007e6a9000d8
:1026d80024cf98000e72900034cf9800de2290002c
:1026e8004e02900004034200e4c7200004024300a5
:1026f800050a78004e0290000402e9004407980099
:102708005e6a900024cf98006e6a900034cf9800db
:10271800de2290004e02900004034200e4c720002d
:1027280004024300050a78004e0290000402e90002
:10273800440798003e6a900024cf98004e6a9000a3
:1027480034cf9800de2290004e029000040342002d
:10275800e4c7200004024300050a78004e029000f6
:102768000402e900440798003e0290000402e800d1
:102778007407980014c0b30044479800120037004b
:102788004e4290008482fb004e0290000482420078
:1027980084024200e4c72000048242001402780048
:1027a800e00f520005003a004e4290008482fb0080
:1027b8004e02900004824200740798004e42900036
:1027c8000442e800444798004e429000ed4f520002
:1027d800ebff36007eda9000e04f52000b003a0023
:1027e800fe029000d47b8000848f520007003200e4
:1027f800d47b8000e00f5200040032004e1290009b
:102808000402e80044179800d20437007e029000c2
:102818000402e9005407980014002000040f9800ef
:10282800910037000e0a9000e10f52008a003a002a
:10283800ce2290004e02900004034200e4c720001c
:1028480004024300050a78004e0290000402e900e1
:1028580044079800be2290004e02900004034200f4
:10286800e4c7200004024300050a78004e029000e5
:102878000402e900440798009e2290004e0290004e
:1028880004034200e4c7200004024300050a78005c
:102898004e0290000402e900440798008e2290003e
:1028a8004e02900004034200e4c7200004024300e3
:1028b800050a78004e0290000402e90044079800d7
:1028c800fe1a90004e02900004034200e4c7200064
:1028d80004024300050a78004e0290000402e90051
:1028e80044079800ee1a90004e029000040342003c
:1028f800e4c7200004024300050a78004e02900055
:102908000402e90044079800de1a90004e02900085
:1029180004034200e4c7200004024300050a7800cb
:102928004e0290000402e90044079800ce1a900075
:102938004e02900004034200e4c720000402430052
:10294800050a78004e0290000402e9004407980046
:102958003e72900024cf98004e72900034cf9800b9
:10296800de2290004e02900004034200e4c72000db
:1029780004024300050a78004e0290000402e900b0
:10298800440798001e72900024cf98002e72900081
:1029980034cf9800de2290004e02900004034200db
:1029a800e4c7200004024300050a78004e029000a4
:1029b8000402e900440798007e6a900024cf98003a
:1029c8000e72900034cf9800de2290004e029000e4
:1029d80004034200e4c7200004024300050a78000b
:1029e8004e0290000402e900440798005e6a9000d5
:1029f80024cf98006e6a900034cf9800de229000b1
:102a08004e02900004034200e4c720000402430081
:102a1800050a78004e0290000402e9004407980075
:102a28003e6a900024cf98004e6a900034cf9800f8
:102a3800de2290004e02900004034200e4c720000a
:102a480004024300050a78004e0290000402e900df
:102a580044079800040037004e1290000402e80072
:102a6800441798003b0437004e029000e00f5200d4
:102a7800040034004e1290000402e8004417980045
:102a88003404370014002000240f98000002eb00e3
:102a9800040f98000002eb00040f78007eda900023
:102aa8000482fb00e00f520003003200e10f5200e5
:102ab80070013200dc0337000042eb004447980005
:102ac8000c0037004e4290008482fb004e4290007a
:102ad8000482fb006e0b900004024300144278004d
:102ae80085024700c4ca98004e4290000442e8009c
:102af800444798004e429000ea4f5200f1ff3600da
:102b08006e0a9000680242009442780004c2b30042
:102b180084cf5200580032000042eb00444798002e
:102b28000b0037004e4290000482fb00ee0a900032
:102b3800048242009442780004c2b30084cf520059
:102b4800070032004e4290000442e80044479800d3
:102b58004e429000e74f5200f2ff36000100370066
:102b6800000000004e4290000482fb0084024700ef
:102b7800e4c2b300c4ca98004e4290000442e80080
:102b8800444798004e4290008482fb006e0a9000f1
:102b9800680242001442780085024700c4ca9800bf
:102ba8004e4290000442e800444798006e0a9000a4
:102bb800690242009442780004c2b30084cf5200f4
:102bc8000b0032004e4290008482fb006e0a900097
:102bd800690242001442780085024700c4ca98007e
:102be8004e4290000442e80044479800080037002d
:102bf8004e4290000482fb00840247000042eb0032
:102c0800c4ca98004e4290000442e8004447980025
:102c18006e0a90006a0242009442780004c2b3002f
:102c280084cf52000b0032004e4290008482fb0099
:102c38006e0a90006a02420014427800850247003a
:102c4800c4ca98004e4290000442e80044479800e5
:102c58001b0037004e4290000482fb0084024700ac
:102c68000042eb00c4ca98004e4290000442e800bb
:102c780044479800120037000042eb004447980090
:102c88000a0037004e4290000482fb00040247000d
:102c9800c4ca900004c2b30084cf520007003200b7
:102ca8004e4290000442e800444798004e4290008b
:102cb800e74f5200f3ff3600010037000000000024
:102cc8004e4290000482fb00840247000042eb0061
:102cd800c4ca9800d47b8000e00f52008200320002
:102ce8002e0a9000e00f5200420032000002eb0072
:102cf80034079800390037006e2a9000441290007b
:102d0800e00f5200230032003e029000040242000d
:102d1800fe0a9000048242001402780024479800ba
:102d28003e02900084024200e4c720000482420070
:102d380014027800344798003e0290008402420052
:102d4800e4c720000482420094027800f40f2000b7
:102d5800848f52000c003e002e4290000482fb003b
:102d68000400780000f60700000478003e42900056
:102d78000482fb0004007800fbf5070000027800dd
:102d8800840f540012003200b4002000040f7800b1
:102d9800170037003e02900004024200fe0a90002d
:102da80004824200940278003e029000040342002c
:102db800e4c720000402430014027800848f520004
:102dc80003003200b4002000040f78000800370028
:102dd8003e0290000402e80034079800be0290000a
:102de800d47b8000848f5200c3ff39000e03370064
:102df8000d0337001e0a9000e00f52003700320022
:102e08006e2a900044129000e00f52003300320006
:102e1800c40420000e0242000400780063f8070092
:102e28000002780084027800d47b8000848f5200ee
:102e380003003200b4002000040f7800250037009a
:102e48000002eb00340798001e0037003e02900095
:102e580004024200fe0a9000048242001402780034
:102e680024479800c50420008e8242003e0290004c
:102e78000482420014427800344798002e429000a1
:102e88000482fb0004007800b7f50700000478000e
:102e98003e4290000482fb0004007800b2f507006f
:102ea80000027800840f540003003200b4002000b0
:102eb800040f7800070037003e0290000402e80083
:102ec80034079800be029000d47b8000848f5200a3
:102ed800deff390000000000d3023700b4002000f4
:102ee800040f7800d00237002e0a9000e00f52003d
:102ef8003a003200c40420000e02420004007800a8
:102f08002af8070000027800fe029000850f5200a0
:102f180003003200b4002000040f7800c20237001a
:102f28000002eb0034079800270037003e029000ab
:102f380084024200e4c720000482420014027800a0
:102f480024479800c50420008e8242003e0290006b
:102f58000482420014427800344798003e029000f0
:102f680084024200e4c720000482420094027800f0
:102f7800f40f2000848f52000c003e002e42900077
:102f88000482fb000400780077f50700000478004d
:102f98003e4290000482fb000400780072f50700ae
:102fa80000027800840f540004003200b4002000ae
:102fb800040f7800000000009b0237003e029000da
:102fc8000402e80034079800be0290007e029000d8
:102fd800848f5200d5ff3500930237000042eb0082
:102fe800444798001f0037004e4290000482fb00bf
:102ff800ee0a9000048242001440780020479800ae
:103008004e4290000482fb00ee2a90007c024200af
:1030180065427a00344798002e4290000482fb00f3
:103028000400780050f50700000478003e42900044
:103038000482fb00040078004bf5070000027800ca
:10304800840f540004003200b4002000040f7800fc
:1030580000000000740237004e4290000442e8006d
:10306800444798004e429000ea4f5200deff360077
:103078006d023700d47b8000e00f520062013200fd
:103088000002eb00340f98002e0a9000e00f520067
:103098001d003200de009000610798001100370023
:1030a8006e02900084024200e4c7200004824200bd
:1030b80094027800e4022000848f520006003a004f
:1030c80014002000340f98006e0290000402e900fa
:1030d80064079800060037006e0290000402e900b9
:1030e800640798006e029000e00f5200ecff3c006d
:1030f8003e0a9000e00f52000d003a005e02900078
:10310800640798000a0037006e0a900068024200bf
:103118009442780004c2b30084cf52000200320007
:1031280014002000340f98007400200064079800f1
:10313800d47b80000402e900440798000002eb00f9
:10314800440f9800110037004e029000040242001c
:10315800fe0a90000482420094027800e4022000f3
:10316800848f520006003a0014002000440f980093
:103178004e0290000402e900440798000600370058
:103188004e0290000402e900440798004e029000a5
:10319800e00f5200ecff3c004e0a9000e00f520096
:1031a80003003a00d47b80000402e9004407980039
:1031b8000002eb003407980001003700000000000f
:1031c8003e02900004024200fe0a9000048242007f
:1031d80094027800a4022000848f5200620032001a
:1031e800be0290006e029000848f520003003400eb
:1031f800b4002000040f78005e0037003e02900003
:1032080004024200fe0a9000048242009402780000
:10321800f4032000848f5200450032006e2a90008b
:1032280044129000e00f52002f0032003e0290003e
:1032380004024200fe0a9000048242001402780050
:10324800244798002e0a9000e00f52000700320031
:103258003e02900084024200e4c72000048242003b
:103268001402780034479800050037003e029000a9
:10327800ee0a900004824200944278003547980094
:103288002e0a9000e00f5200080032003e02900023
:1032980084024200e4c720000482420094027800bd
:1032a800f40f2000848f52000c003e002e42900044
:1032b8000482fb0004007800abf4070000047800e7
:1032c8003e4290000482fb0004007800a6f4070048
:1032d80000027800840f540015003200b40020006a
:1032e800040f7800230037003e02900004024200d9
:1032f800fe0a900004824200940278003e02900088
:1033080004034200e4c720000402430014027800ca
:10331800848f520003003a001e0a9000e00f52000a
:1033280003003200b4002000040f780011003700b9
:103338003e0290000402e80034079800be029000a4
:103348004e029000848f52009cff3400be02900011
:103358006e029000848f520005003c00b4002000eb
:10336800040f780003003700000000000100370058
:10337800000000004e0a9000e00f520006003a00dc
:103388003e0a9000e10f5200a0013a00b40020006c
:10339800040f7800a40137003e0a9000e00f5200a5
:1033a80003003a00b4002000040f78009e013700a3
:1033b8002e0a9000e00f5200040032006e029000c6
:1033c8000482e800640798000200370084002000a7
:1033d800640798004e0290000482e80034079800c1
:1033e80001003700000000003e0290000402420085
:1033f800fe0a90000482420094027800a402200091
:10340800848f520001003a007e0037002e0a900097
:10341800e00f520004003200ee0290005e029000bd
:10342800848f520006003c001e0a9000e00f5200f4
:10343800060032006e029000eb0f520003003a00c3
:10344800b4002000040f78006e0037003e029000a0
:1034580004024200fe0a90000482420094027800ae
:10346800f4032000848f5200450032006e2a900039
:1034780044129000e00f52002f0032003e029000ec
:1034880004024200fe0a90000482420014027800fe
:10349800244798002e0a9000e00f520007003200df
:1034a8006e02900084024200e4c7200004824200b9
:1034b8001402780034479800050037006e02900027
:1034c800ee0a9000048242001440780030479800c9
:1034d8002e0a9000e00f5200080032006e029000a1
:1034e80084024200e4c7200004824200940278006b
:1034f800f40f2000848f52000c003e002e429000f2
:103508000482fb000400780017f407000004780028
:103518003e4290000482fb000400780012f4070089
:1035280000027800840f540015003200b400200017
:10353800040f7800330037003e0290000402420076
:10354800fe0a900004824200940278006e02900005
:1035580004034200e4c72000040243001402780078
:10356800848f520003003a001e0a9000e00f5200b8
:1035780003003200b4002000040f78002100370057
:103588006e0290000402e800640798003e02900072
:103598000402e80034079800be029000d47b800043
:1035a800848f52008fff3a002e0a9000e00f5200dd
:1035b80004003200ee0290005e029000848f5200f8
:1035c8000d0034001e0a9000e00f52000c0032007b
:1035d8006e029000ea0f520009003c006e02900053
:1035e800ee0a9000048242009442780004c2b300bc
:1035f80084cf520002003200b4002000040f78008b
:1036080000000000080137002e0a9000e00f520069
:103618001f003200de009000310798000002eb0026
:10362800340f9800110037003e02900084024200d7
:10363800e4c720000482420094027800e4022000db
:10364800848f520006003a0014002000340f9800be
:103658003e0290000402e900340798000600370093
:103668003e0290000402e900340798003e029000f0
:10367800e00f5200ecff3c003e0a9000e00f5200c1
:1036880005003a005e0290003407980002003700f7
:1036980074002000340798006e2a9000c45a9000e5
:1036a800a4c2b30084cf52005c0032000042eb0099
:1036b8004447980001003700000000002e0a9000df
:1036c800e00f5200110032004e4290000482fb00cd
:1036d80084024200e4c72000048242009402780079
:1036e800f40f2000848f520005003e004e429000e7
:1036f8008482fb003e029000848f52000300340055
:10370800b4002000040f7800440037002e0a90000f
:10371800e00f5200080032004e4290000482fb0085
:1037280084024200e4c720000482420014027800a8
:1037380024479800060037004e4290000482fb00a0
:10374800ee0a9000048242009442780025479800cf
:103758004e4290000482fb00ee2a90007c02420058
:1037680065427a0034479800be429000a4c2b30074
:1037780084cf520024003200be429000f4c3b3004c
:1037880084cf52000f0032002e4290000482fb00ca
:103798000400780074f30700000478003e429000ab
:1037a8000482fb00040078006ff307000002780031
:1037b800840f540003003200b4002000040f780086
:1037c800160037004e4290000442e8004447980033
:1037d8004e429000e84f5200b7ff3a002e0a900080
:1037e800e00f52000a0032004e4290008482fb0033
:1037f8003e029000848f520007003c00b400200075
:10380800040f7800050037000000000003003700af
:103818000000000001003700000000006e2a900040
:10382800c4629000a4c2b30084cf52007900320071
:103838001e027800e00f520078003a002e0a90002d
:10384800e00f5200150032006e2a9000c46290000a
:1038580004c2b30084cf520006003a003e0a90002a
:10386800e10f52006f003a00b4002000040f780006
:103878006d0037003e0a9000e00f520003003a0046
:10388800b4002000040f7800670037003e02900063
:103898000482e80034079800020037008400200002
:1038a8003407980084c0b3004447980001003700eb
:1038b800000000002e0a9000e00f52000f003200b6
:1038c8003e02900084024200e4c7200004824200c5
:1038d80094027800f40f2000848f520004003e0008
:1038e800be0290005e029000848f520003003400f4
:1038f800b4002000040f7800430037004e429000c7
:103908000482fb00ee2a90007c02420065427a00a5
:10391800344798002e0a9000e00f52000a00320047
:103928003e02900084024200e4c720000482420064
:1039380014027800244798003e0290000402e80030
:1039480034079800080037003e029000ee0a900005
:103958000482420014407800204798003e029000fc
:103968000402e80034079800be429000a4c2b300e5
:1039780084cf520001003a0023003700be42900075
:10398800f4c3b30084cf52000f0032002e429000df
:103998000482fb0004007800f3f2070000047800ba
:1039a8003e4290000482fb0004007800eef207001b
:1039b80000027800840f540003003200b400200095
:1039c800040f7800100037004e4290000442e800cf
:1039d800444798004e429000eb4f5200b4ff3a0023
:1039e8002e0a9000e00f520006003200be0290003e
:1039f8005e029000848f520002003c00b400200058
:103a0800040f7800000000000700370000000000e5
:103a18000500370000000000030037000000000028
:103a280001003700000000001e027800e00f52007d
:103a380041003a002e0a9000e00f520003003200c5
:103a48004e1290000402e8004417980084022000f7
:103a58000e024200840078005e289000ad1a07002c
:103a680000427800446798002e0a9000e00f520048
:103a7800030032004e1290000402e9004417980037
:103a88005e2a90009418900031179800be1290009a
:103a9800f403200004826200341798007eda900054
:103aa8000482fb00e00f520003003200e10f5200d5
:103ab80007003200230037003e129000e80f520042
:103ac8001f003a00b4002000040f78001d003700e2
:103ad800be1290001e12900004826200e00f520095
:103ae80002003200b4002000040f78002e0a900073
:103af800e00f520004003200fe0290005e2a90009f
:103b0800651298000f0037005e2a90008002eb00d3
:103b1800651298000b0037000002eb00040f9800b4
:103b28006eda9000e04f520006003a000002eb0007
:103b3800040f780003003700000000000100370080
:103b4800000000004e1290000402e800441798009c
:103b580020fa37001ffa3700000000000100370084
:103b6800000000001e027800040078004f0478006e
:103b78000080fa00000006001000fa0050079800c4
:103b880061079800624f98000002eb00040f78006c
:103b98005e02900014007800100798001e02900042
:103ba80034629000e04f520003003a007400200095
:103bb800040f7800930037005e029000b41a90005a
:103bc800241a90005e039000441b9800551b98002f
:103bd8006e02900014027800e00f52000a003a00ca
:103be80012c0b300ee0090005e009000e2110700e2
:103bf80000027800e00f520011003a00b4012000e2
:103c0800040f78000e0037006e029000140278004e
:103c18006f026200e00f52000900320012c0b300c8
:103c2800ee0090005e009000d311070000027800bb
:103c3800e00f520002003a00b4012000040f78009f
:103c4800ee0090005e009000321a070000427800f3
:103c5800444798004e429000e04f52000300320063
:103c6800b4002000040f7800660037005e0390005f
:103c78006022b80074039800050b98005e0290005b
:103c8800a4029000140290005e0390003403980090
:103c9800450398005e0290008002eb0055029800f0
:103ca8005e0290008002eb00650298004e42900090
:103cb800e14f520003003a00b4002000040f7800de
:103cc800330037005e029000c40290003402900076
:103cd8000401be001e009000e82007000002be009c
:103ce8003407980045079800c4c42100144278009e
:103cf800e04f5200060032002123070000427800fe
:103d0800e04f520002003200940020003e003700cd
:103d18005e02900034e2880046e2800057e28000ac
:103d28003e029000ce029000840f5300858f5b0006
:103d3800170032000042eb00044078004efcb70048
:103d48001e029000144378008682fb001442900003
:103d58000482fb004822dd0005027200040178009d
:103d68003e009000ce0090005142070000427800cb
:103d7800e04f520002003a0084002000040f78004f
:103d88003e029000ce02900044e2880055e288008e
:103d9800de029000350a90000420a100b40a9800c1
:103da800ee4a900074c7b30084cf5200040032007a
:103db800ee4a900014c6b30084cf520009003a00be
:103dc800de029000350a90000400a000b40a9800b2
:103dd800de029000350a90000410a100b40a980091
:103de80008003700de029000350a90000400a100a8
:103df800b40a9800de029000350a90000410a00072
:103e0800b40a98001e027800040078000080fa00c6
:103e1800000006001a00fa00200f9800320f9800e0
:103e2800430f98000042eb00044f98002e0a9000c0
:103e380094027800550798005e0290002462900072
:103e48000482fb00e10f52000a003200e30f520027
:103e580010003a0084ff2f00f5ff20002407980087
:103e680035079800f4ff2f00f5ff2000048fbe00ef
:103e78001000370084ff2000050020002407980068
:103e880035079800f4ff2f0005002000048fbe00be
:103e98000800370084ff2f00050020002407980041
:103ea80035079800f4ff2f0005002000048fbe009e
:103eb800000000002e0a900034039000c403900014
:103ec80066079800770798006e019000fe01900041
:103ed8005e009000e92807000002be00040f980069
:103ee800150f98000e0a90009e0a9000be0f52000f
:103ef800ae8f5a0003003a0084c0b300044f980004
:103f0800210037005e039000c65390000780fb0035
:103f1800d65390008783fb00c83bdd008083730085
:103f280007027800e65390008783fb0076539000e1
:103f38000683fb004833dd00070373008602780020
:103f480062034200e0834a000e0a90009e0a900035
:103f5800840f5300858f5b0002003e00a4c0b300ad
:103f6800044f98000e0b90009e0b90002e029000bc
:103f7800be029000840f5300858f5b000200390059
:103f8800c4c3b300044f98002e0a90000e0b900093
:103f98009e0b900036029800470298003e0a900057
:103fa800ce0a900061025200e0825a00340f980055
:103fb800450f98003e0a9000ce0a9000e00f52008c
:103fc800e08f5a00030032000e4a9000e04f520082
:103fd800b8ff32000e4a9000044078000080fa00d2
:103fe800000006000600fa00200798000042eb00d7
:103ff800044f7800ae0290000042eb00b4629800d3
:104008002e02900086722100f50f200085036300c0
:1040180094427800e0c2620087c27200054a7800c4
:104028004833de0094429000e0c2620086c272000b
:1040380015429800a644070000027800140798006b
:104048001e02900014427800e04f52000600320031
:1040580064c0b300044f780064c0b3000440780023
:1040680098eeb7003d0037001e02900094027800d9
:104078000410200004826200e00f52002600320083
:104088001e029000140290006123b8002e029000d6
:10409800f50f200005006300845a9000e0c262001a
:1040a80080c27200055a98004830de00945a900089
:1040b800e0c2620080c27200155a9800f50f200015
:1040c80005806300a45a9000e0c2620080c27200ba
:1040d800255a9800483bde00b45a9000e0c26200be
:1040e80086c27200355a98001e0290009402900011
:1040f80004202000848f52000700360014c2b30049
:10410800044f780014c2b3000440780098eeb7005a
:104118001e427800120037002e009000130007009e
:1041280000427800044f78001e427800e04f5200a9
:104138000a003a002e0090005d0107000042780056
:10414800044f78001e427800e04f520003003a0006
:10415800ae02900014c0b300b46298001e4278000a
:10416800044078000080fa00000006000c00fa0005
:10417800500798000042eb00044f78005e02900060
:10418800144078008082fb00144290000482fb00f7
:104198004822dd0005027200040178006000b800c2
:1041a8004341070000427800e14f52000600320008
:1041b80084c0b300044f780084c0b3000440780082
:1041c80098eeb700360137005e029000144378007d
:1041d8008682fb00144290000482fb004822dd0026
:1041e80005027200240798002e029000e4fa93005a
:1041f80054c5b30084cf5200b5003a002e02900097
:10420800f4fa9300a4cab30084cf5200b0003a0075
:104218005e029000144078008082fb0014429000f7
:104228000482fb004822dd000502720061032000c1
:1042380004007800461f07000042780065c4b300f8
:10424800854f52004a003a005e02900014437800fd
:104258008682fb00144290000482fb004822dd00a5
:10426800050272007103200004007800381f07005f
:104278000042780015c4b300854f52003c003a0054
:104288005e029000144078008082fb001442900087
:104298000482fb004822dd00050272008103200031
:1042a800040078002a1f07000042780045c5b300c3
:1042b800854f52002e003a005e02900014437800a9
:1042c8008682fb00144290000482fb004822dd0035
:1042d8000502720091032000040078001c1f0700eb
:1042e8000042780015c3b300854f520020003a0001
:1042f8005e029000144078008082fb001442900017
:104308000482fb004822dd000502720061022000e1
:10431800040078000e1f07000042780095c2b30021
:10432800854f520012003a005e029000a4429000ad
:10433800e0c2620025429800b4429000e0c26200e8
:1043480035429800c4429000e0c26200454298009d
:10435800d4429000e0c2620055429800de0290000c
:1043680024c0b300a46298000042eb00cd003700df
:104378005e029000144378008682fb00144290008d
:104388000482fb004822dd0005027200210520009e
:1043980004007800ee1e07000042780065c4b300f0
:1043a800854f52004a003a005e029000144078009f
:1043b8008082fb00144290000482fb004822dd004a
:1043c800050272003105200004007800e01e070095
:1043d8000042780015c4b300854f52003c003a00f3
:1043e8005e029000144378008682fb00144290001d
:1043f8000482fb004822dd0005027200410520000e
:1044080004007800d21e07000042780045c5b300ba
:10441800854f52002e003a005e029000144078004a
:104428008082fb00144290000482fb004822dd00d9
:10443800050272005105200004007800c41e070020
:104448000042780035c3b300854f520020003a007f
:104458005e029000144378008682fb0014429000ac
:104468000482fb004822dd000502720021042000be
:1044780004007800b61e07000042780095c2b30019
:10448800854f520012003a005e029000a44290004c
:10449800e0c2620025429800b4429000e0c2620087
:1044a80035429800c4429000e0c26200454298003c
:1044b800d4429000e0c2620055429800de029000ab
:1044c80034c0b300a46298000042eb0075003700c6
:1044d8005e029000144078008082fb001442900035
:1044e8000482fb004822dd000502720034079800b0
:1044f8003e029000e4fa930054c5b30084cf520002
:1045080005003a003e029000f4fa9300a4cab300f2
:1045180084cf52000600320044c0b3000440780043
:1045280098eeb70044c0b300044f78005c00370031
:104538003e029000e41bb000140798000042eb0014
:10454800144798004e0037001e029000844a9000dd
:104558000580fb00944a90008582fb00c82add0094
:104568008082720005037800a44a90008582fb00cf
:10457800344a90000482fb004822dd0005027200e4
:10458800840378005e029000f50f200005006300a8
:10459800a4429000e0c2620080c2720025429800e6
:1045a8004830de00b4429000e0c2620080c272006f
:1045b80035429800f50f200005806300c442900042
:1045c800e0c2620080c2720045429800483bde00ab
:1045d800d4429000e0c2620086c272005542980040
:1045e8001e029000c4429000054f98000e4a9000a9
:1045f8000482fb00ee0f52001b003e001500200055
:10460800042add000505240085026200e08f5200bf
:104618000b003a000580210085026200e08f5200fd
:104628000c003a0062026200e00f52000e003200f5
:10463800de02900014c0b300a46298000a0037009c
:10464800de02900024c0b300a46298001e427800e5
:1046580014003700de02900034c0b300a462980052
:104668001e4278000f0037001e02900070024200c0
:10467800140798001e4290000442e800144798006e
:104688001e429000e34f5200afff360054c0b30003
:104698000440780098eeb70054c0b300044f780087
:1046a8001e427800044078000080fa0000000600ee
:1046b8001a00fa00889fbe00400f98000042eb00e5
:1046c800444798000002eb00340798000002eb0012
:1046d800440798004e0a9000144078008082fb003e
:1046e800144290000482fb004822dd00050272009b
:1046f800040078004e0b9000a64390008780fb00d2
:10470800b64390008783fb00c83bdd0081837300bc
:1047180007027800c64390008783fb005643900049
:104728000683fb004833dd00070373008602780028
:10473800000178000400be00dd3f07000042780059
:10474800e14f52000300320084c0b3004447980090
:10475800160337004e0a9000944078008182fb00cf
:10476800144290000482fb004822dd00050272001a
:10477800540798005e029000e4fa930054c5b30011
:1047880084cf520005003a005e029000f4fa9300cc
:10479800a4cab30084cf52000300320034c0b3006f
:1047a800444798003d0237004e0a900014437800b1
:1047b8008682fb00144290000482fb004822dd0040
:1047c80005027200e100200004007800e91d0700de
:1047d80000027800640798004e0a9000944378001d
:1047e8008782fb00144290000482fb004822dd000f
:1047f80005027200d100200004007800d41d0700d3
:1048080000427800ce0a9000946298004e0b900007
:10481800a64390000780fb00b64390008783fb0007
:10482800c83bdd008083730007027800c643900010
:104838008783fb00564390000683fb004833dd0066
:1048480007037300860278006e03900007002000bb
:104858000403430085834b004e0a9000f50f2000a7
:1048680005006300e4429000e0c2620080c272006a
:10487800654298004830de00f4429000e0c26200d1
:1048880080c2720075429800f50f20000580630011
:10489800844a9000e0c2620080c27200054a980013
:1048a800483bde00944a9000e0c2620086c2720073
:1048b800154a98004e0a9000144078008082fb0048
:1048c800144290000482fb004822dd0005027200b9
:1048d80001012000040078009d1d070000427800b7
:1048e800ce0a9000846298004e0a900094407800a6
:1048f8008182fb00144290000482fb004822dd0004
:10490800050272006101200004007800991d07006b
:10491800000278006123b8004e0a9000f50f2000cd
:1049280005006300c45a9000e0c2620080c27200b1
:10493800455a98004830de00d45a9000e0c2620020
:1049480080c27200555a9800f50f20000580630058
:10495800e45a9000e0c2620080c27200655a980072
:10496800483bde00f45a9000e0c2620086c2720042
:10497800755a98004e0b9000c65b90000780fb00ac
:10498800d65b90008783fb00c83bdd008083730003
:1049980007027800e65b90008783fb00765b900057
:1049a8000683fb004833dd000703730086027800a6
:1049b800e00f5200e08f5a0022003a004e0a9000a1
:1049c800144378008682fb00144290000482fb00a6
:1049d8004822dd0005027200410220000400780030
:1049e800801d07000003be004e0a9000f50f20004e
:1049f80005006300c45a9000e0c2620080c27200e1
:104a0800455a98004830de00d45a9000e0c262004f
:104a180080c27200555a9800f50f20000580630087
:104a2800e45a9000e0c2620080c27200655a9800a1
:104a3800483bde00f45a9000e0c2620086c2720071
:104a4800755a98004e0a9000e44290000583fb00d6
:104a5800f44290008582fb00c82add00868272003d
:104a680005007800844a90008582fb00144a900073
:104a78000482fb004822dd000502720084007800f1
:104a88004e0a9000046290000483fb000700200097
:104a98004e099000c25990000384fb00d25990003f
:104aa8008381fb00c819dd0088817100030278004a
:104ab800e25990008381fb00725990000281fb004b
:104ac8004811dd00030171008202780004b9b900c1
:104ad8000201780006acb9008801780003014100a2
:104ae80006037800040278000432b800050141008a
:104af800820278000003420081834a004e0a900037
:104b0800f50f200005006300a44a9000e0c262008f
:104b180080c27200254a98004830de00b44a9000ee
:104b2800e0c2620080c27200354a9800f50f20008a
:104b380005806300c44a9000e0c2620080c272002f
:104b4800454a9800483bde00d44a9000e0c2620023
:104b580086c27200554a98004e0a90009443780025
:104b68008782fb00144290000482fb004822dd008b
:104b7800050272001101200004007800fd1c0700e6
:104b8800000378004e0a9000f50f200085036300ab
:104b9800a4529000e0c2620087c2720025529800b9
:104ba8004833de00b4529000e0c2620086c2720050
:104bb800355298004e0a9000144078008082fb001d
:104bc800144290000482fb004822dd0005027200b6
:104bd8003101200004007800e61c0700000278007c
:104be80005002000048fbe001e02be00e00f520028
:104bf800e08f5a000c003a004e0a9000944078006a
:104c08008182fb00144290000482fb004822dd00f0
:104c1800050272000102200004007800f11c070060
:104c28000002be00048fbe004e0a900014437800b4
:104c38008682fb00144290000482fb004822dd00bb
:104c480005027200b100200004007800c91c0700aa
:104c580000027800740798007e029000e00f52006e
:104c6800050032007e029000610262000442780072
:104c7800e04f52000300320014c2b30044479800ca
:104c880006013700ce0a9000255290000483fb00ed
:104c9800355290000482fb004822dd0006027200b3
:104ca800c522dd007e029000048242008402e900f1
:104cb8007e029000110009008482d800000278006a
:104cc80005002000040f9800150f98006e02900050
:104cd8006121b8004e0a9000046290000483fb0032
:104ce800070020004e089000c05890000184fb0087
:104cf800d05890008180fb00c808dd0088807000d3
:104d080001027800e05890008180fb007058900004
:104d18000080fb004800dd00010070008002780080
:104d280004b8b9000000780006acb9008800780023
:104d38000100400006037800040278000432b8003d
:104d480005004000800278000203420083834a0085
:104d58000e0a90009e0a90000602420087824a00ce
:104d68003e031200ae831a000602be00240f98000c
:104d7800350f98004e0a9000146290000482fb00e0
:104d8800050020000401be002e089000be08900017
:104d980051ef07000002be000403be004e0a900057
:104da800f50f200005006300c4529000e0c26200c5
:104db80080c27200455298004830de00d4529000fc
:104dc800e0c2620080c2720055529800f50f2000c0
:104dd80005806300e4529000e0c2620080c2720065
:104de80065529800483bde00f4529000e0c2620031
:104df80086c27200755298004e0b9000c653900000
:104e08000780fb00d65390008783fb00c83bdd007a
:104e18008083730007027800e65390008783fb00c5
:104e2800765390000683fb004833dd0007037300c8
:104e38008602780046ff200007002000860f5200f7
:104e4800878f5a0004003e00ce0a900014c0b300b9
:104e5800a46298001b0037004e0b9000c6539000c8
:104e68000780fb00d65390008783fb00c83bdd001a
:104e78008083730007027800e65390008783fb0065
:104e8800765390000683fb004833dd000703730068
:104e98008602780046ff2f0007002000860f520088
:104ea800878f5a0004003e00ce0a900024c0b30049
:104eb800a462980003003700ce0a900034c0b30003
:104ec800a46298004e0a900024629000e34f5200ba
:104ed80038003a004e0a9000944378008782fb001d
:104ee800144290000482fb004822dd000502720093
:104ef800c1022000040078003a1c07000002be002e
:104f0800a4748800b57488004e0b9000a64b9000de
:104f18000780fb00b64b90008783fb00c83bdd0091
:104f28008083730007027800c64b90008783fb00dc
:104f3800564b90000683fb004833dd0007037300df
:104f4800860278000e0b90009e0b9000040343002d
:104f580085834b004e0a9000f50f20000500630082
:104f6800e44a9000e0c2620080c27200654a98007c
:104f78004830de00f44a9000e0c2620080c272004d
:104f8800754a9800f50f2000058063008452900050
:104f9800e0c2620080c2720005529800483bde0001
:104fa80094529000e0c2620086c2720015529800c6
:104fb800340037006022b800a4748800b5748800f3
:104fc8004e0b9000a64b90000780fb00b64b90005c
:104fd8008783fb00c83bdd008083730007027800ed
:104fe800c64b90008783fb00564b90000683fb005e
:104ff8004833dd000703730086027800ce0b90006b
:10500800275390000680fb00375390000683fb006f
:105018004833dd00000373004433de00070020003e
:105028000403430085834b004e0a9000f50f2000cf
:1050380005006300e44a9000e0c2620080c272008a
:10504800654a98004830de00f44a9000e0c26200e9
:1050580080c27200754a9800f50f20000580630031
:1050680084529000e0c2620080c27200055298002b
:10507800483bde0094529000e0c2620086c2720093
:1050880015529800fe02900004202000848f5200e0
:105098000200360014c2b300444798004e0a90003c
:1050a80024629000e34f52000d0032004e429000ff
:1050b800e04f5200b60032005e029000a4c2900099
:1050c80094c2b30084cf5200050032005e02900003
:1050d800a4c2900084c2b30084cf5200ae003a004c
:1050e800de029000355290000483fb004552900088
:1050f8000482fb004822dd0006027200e00f520025
:105108003a003a005e02900044729000e04f52006c
:1051180036003a005e02900054729000e04f520050
:1051280032003a005e02900064729000e04f520034
:105138002e003a005e02900074729000e04f520018
:105148002a003a005e029000047a9000e04f520074
:1051580026003a005e029000147a9000e04f520058
:1051680022003a005e029000247a9000e04f52003c
:105178001e003a005e029000347a9000e04f520020
:105188001a003a005e029000447a9000e04f520004
:1051980016003a005e029000547a9000e04f5200e8
:1051a80012003a005e029000647a9000e04f5200cc
:1051b8000e003a005e029000747a9000e04f5200b0
:1051c8000a003a005e029000a4c2900094c2b300a4
:1051d80084cf5200070032005e029000a4c2900003
:1051e80084c2b30084cf52000200320034c0b3003e
:1051f800444798004e429000e04f5200340032007d
:105208003e029000e00f520031003a0014002000e6
:10521800340798004e0a9000144078008082fb0002
:10522800144290000482fb004822dd00050272004f
:10523800040078004e0b9000a64390008780fb0086
:10524800b64390008783fb00c83bdd008183730071
:1052580007027800c64390008783fb0056439000fe
:105268000683fb004833dd000703730086027800dd
:10527800de039000277390008680fb003773900050
:105288000683fb004833dd0001037300070020009c
:105298000402430085824b00000178000400be0030
:1052a800033d070000427800e14f5200050032003c
:1052b80084c0b3000440780098eeb70084c0b300ff
:1052c800400037000042eb00444798002f003700a9
:1052d8004e429000e04f5200310032004e029000e2
:1052e800e00f520030003a001400200044079800f4
:1052f8004e0a9000944078008182fb00144290008e
:105308000482fb004822dd000502720004007800d8
:105318004e0b9000a64390008780fb00b643900098
:105328008783fb00c83bdd00818373000702780098
:10533800c64390008783fb00564390000683fb001a
:105348004833dd00070373008602780066024200d6
:10535800e0824a00000178000400be00d43c070047
:1053680000427800e14f52000500320084c0b300cb
:105378000440780098eeb70084c0b30011003700ed
:105388000042eb004447980000000000f9fc370099
:10539800000000000500370000000000030037008f
:1053a8000000000001003700000000004e4290009d
:1053b800e04f5200020032004e40900098eeb700d5
:1053c8004e429000044078004f04be000080fa006e
:1053d800000006000600fa00200798006022b800c6
:1053e800048fbe002e029000240a900005002000c1
:1053f800048fbe001e02be00c022dd000400200093
:10540800048fbe002e029000540a90000500200070
:105418001e1f72001e9772001e02be000400be000e
:105428000080fa00000006001200fa0050079800f9
:105438006107980072079800030f98006022b8006f
:10544800048fbe005e029000ee029000e00f520052
:10545800e08f5a00070032007e0390008e0b900008
:105468001400200005002000840f5300858f5b0086
:1054780002003e000082eb00300137007e029000ff
:105488008e0a900061035200e0835a005e02900089
:10549800ee029000840f5300858f5b0002003100fc
:1054a8000082eb0025013700c4c4210014427800b3
:1054b800e04f520006003200311d0700004278001c
:1054c800e04f5200020032000082eb001b0137005f
:1054d800022020008000eb0080722100acee070063
:1054e80084722100240798005e029000ee0290006a
:1054f80034079800450798003e029000ce029000bd
:1055080012ec2300030020000400be0072ed070027
:105518000002be000403be004e3add00c232de00c7
:10552800850272004e32dd00048fbe003e029000fc
:10553800ce02900012ec2300030020000400be00fd
:1055480075ed07000002be00340798004507980073
:105558003e029000ce029000f203200003002000db
:105568000400be005ced07000002be000403be009c
:10557800463add00ca32de00850272004632dd009e
:105588001e1f72001e9772003e029000ce0290000d
:10559800f2032000030020000400be005eed0700b7
:1055a8000002be0034079800450798003e029000ac
:1055b800ce02900061024200e0824a001e1f720083
:1055c8001e9772001e02be00402ade000500200061
:1055d8000442780004407800e7f8b7001e02be00d5
:1055e800482bdd004822de0004027300c82ade00d2
:1055f8000442780004407800e8f8b7001e027800fa
:105608000442780004407800e9f8b7007e0390006f
:105618008e0b90005e029000ee029000040353008f
:1056280085835b002e029000f50f200005006300c3
:10563800a4ca9300e0c2620080c2720025ca9b001f
:105648004830de00b4ca9300e0c2620080c2720033
:1056580035ca9b00f50f200005806300c4ca93007b
:10566800e0c2620080c2720045ca9b00483bde006f
:10567800d4ca9300e0c2620086c2720055ca9b0079
:105688002e039000a6cb93000780fb00b6cb9300b7
:105698008783fb00c83bdd00808373000702780026
:1056a800c6cb93008783fb0056cb93000683fb0091
:1056b8004833dd0007037300860278008603210063
:1056c80007002000860f5200878f5a0004003e0012
:1056d800ae02900014c0b300a4c29b001a003700a9
:1056e8002e039000a6cb93000780fb00b6cb930057
:1056f8008783fb00c83bdd008083730007027800c6
:10570800c6cb93008783fb0056cb93000683fb0030
:105718004833dd000703730086027800f6d52f00b2
:10572800f7032000860f5200878f5a0004003e00be
:10573800ae02900064c0b300a4c29b000200370010
:105748000082eb007d0037002e0290005e0390007f
:10575800f50f200005036300e4c29300e0c2620075
:1057680086c2720065c29b00de029000482bde00f4
:10577800f4c29300e0c2620086c2720075c29b0048
:105788006e039000f50f20000503630084ca9300a0
:10579800e0c2620086c2720005ca9b00ee02900059
:1057a800482bde0094ca9300e0c2620086c27200f1
:1057b80015ca9b005e039000ee0390007e029000e5
:1057c8008e0a90000602420087824a006102520057
:1057d800e0825a0034079800450798003e0290007e
:1057e800ce02900012ec2300030020000400be004b
:1057f800b9ec07000002be000403be004e3add000b
:10580800c232de00850272004e32dd00048fbe0017
:105818003e029000ce02900012ec2300030020000c
:105828000400be00bcec07000002be00340798006c
:10583800450798003e029000ce029000f203200037
:10584800030020000400be00a3ec07000002be0015
:105858000403be00463add00ca32de00850272004b
:105868004632dd001e1f72001e9772003e02900035
:10587800ce029000f2032000030020000400be00c6
:10588800a5ec07000002be00340798004507980001
:105898003e029000ce02900061024200e0824a007f
:1058a8001e1f72001e9772001e02be00402ade00f4
:1058b800050020000442780004407800ebf8b700a7
:1058c8001e02be00482bdd004822de0004027300e1
:1058d800c82ade000442780004407800ecf8b700db
:1058e8001e0278000442780004407800edf8b70002
:1058f800ae0290000042eb00e47a9b00ae029000fa
:1059080054c5b300e4fa9b00ae029000a4cab300e9
:10591800f4fa9b0013c0b300827221006000b80043
:10592800ae3d070000427800e14f5200020032000d
:105938000082eb00010037000002eb000400780051
:105948000080fa00000006004e00fa00889fbe00a2
:1059580060c798004227980053279800612798004d
:10596800240220000e024200040f98000042eb00bf
:105978000440780098eeb7000042eb00044078003d
:105988004efcb7000042eb000440780044fcb7002e
:105998000082eb008082eb0004e2880015e28800b8
:1059a8000082eb008082eb0044e2880055e2880028
:1059b8000e0a900086722100f50f2000850363000f
:1059c80094427800e0c2620087c27200054a7800fb
:1059d8004833de0094429000e0c2620086c2720042
:1059e80015429800863a0700393e07000002780001
:1059f800140f98001e0a900014427800e04f5200dd
:105a08000500320064c0b3000440780098eeb70087
:105a18000082eb0065093700827221006000b8003f
:105a2800233b070000427800e04f520005003a008f
:105a3800b4c1b3000440780098eeb7000082eb00d0
:105a48005a0937000e0a9000144378008682fb003a
:105a5800144290000482fb004822dd000502720017
:105a6800240f98002e0a9000e4fa930054c5b3005e
:105a780084cf5200a2003a002e0a9000f4fa930054
:105a8800a4cab30084cf52009d003a000e0a9000c9
:105a9800144078008082fb00144290000482fb00ce
:105aa8004822dd000502720061032000040078002e
