:020000040000fa
:080000000002040000000000f2
:020000040000fa
:10000800b4020000b4020000b4020000b402000010
:10001800b4020000b4020000b4020000b402000000
:10002800b4020000b4020000b4020000b4020000f0
:10003800b4020000b4020000b4020000b4020000e0
:10004800b4020000b4020000b4020000b4020000d0
:10005800b4020000b4020000b4020000b4020000c0
:10006800b4020000b4020000b4020000b4020000b0
:10007800b4020000b4020000b4020000b4020000a0
:10008800b4020000b4020000b4020000b402000090
:10009800b4020000b4020000b4020000b402000080
:1000a800b4020000b4020000b4020000b402000070
:1000b800b4020000b4020000b4020000b402000060
:1000c800b4020000b4020000b4020000b402000050
:1000d800b4020000b4020000b4020000b402000040
:1000e800b4020000b4020000b4020000b402000030
:1000f800b4020000b4020000b4020000b402000020
:10010800b4020000b4020000b4020000b40200000f
:10011800b4020000b4020000b4020000b4020000ff
:10012800b4020000b4020000b4020000b4020000ef
:10013800b4020000b4020000b4020000b4020000df
:10014800b4020000b4020000b4020000b4020000cf
:10015800b4020000b4020000b4020000b4020000bf
:10016800b4020000b4020000b4020000b4020000af
:10017800b4020000b402000000050000b402000050
:10018800b4020000b4020000b4020000b40200008f
:10019800b4020000b4020000b4020000b40200007f
:1001a800b4020000b4020000b4020000b40200006f
:1001b800b4020000b4020000b4020000b40200005f
:1001c800b4020000b4020000b4020000b40200004f
:1001d800b4020000b4020000b4020000b40200003f
:1001e800b4020000b4020000b4020000b40200002f
:0801f800b4020000b402000093
:020000040000fa
:10020800b4020000b4020000b4020000b40200000e
:10021800b4020000b4020000b4020000b4020000fe
:10022800b4020000b4020000b4020000b4020000ee
:10023800b4020000b4020000b4020000b4020000de
:10024800b4020000b4020000b4020000b4020000ce
:10025800b4020000b4020000b4020000b4020000be
:10026800b4020000b4020000b4020000b4020000ae
:10027800b4020000b4020000b4020000b40200009e
:10028800b4020000b4020000b4020000b40200008e
:10029800b4020000b4020000b4020000b40200007e
:1002a800b4020000b4020000b4020000b40200006e
:1002b800b4020000b4020000b4020000b40200005e
:1002c800b4020000b4020000b4020000b40200004e
:1002d800b4020000b4020000b4020000b40200003e
:1002e800b4020000b4020000b4020000b40200002e
:1002f800b4020000b4020000b4020000b40200001e
:10030800b4020000b4020000b4020000b40200000d
:10031800b4020000b4020000b4020000b4020000fd
:10032800b4020000b4020000b4020000b4020000ed
:10033800b4020000b4020000b4020000b4020000dd
:10034800b4020000b4020000b4020000b4020000cd
:10035800b4020000b4020000b4020000b4020000bd
:10036800b4020000b4020000b4020000b4020000ad
:10037800b4020000b402000000050000b40200004e
:10038800b4020000b4020000b4020000b40200008d
:10039800b4020000b4020000b4020000b40200007d
:1003a800b4020000b4020000b4020000b40200006d
:1003b800b4020000b4020000b4020000b40200005d
:1003c800b4020000b4020000b4020000b40200004d
:1003d800b4020000b4020000b4020000b40200003d
:1003e800b4020000b4020000b4020000b40200002d
:0803f800b4020000b402000091
:020000040000fa
:10040000af0c21000e7f24000e01880000000000c8
:1004100000012000200288000c00070060e321009a
:100420000100200011000700000020000000e00093
:1004300002003200000002000000000092170200db
:10044000000000000040da000000fe004440a90067
:10045000801220000000e0000300320000002000b5
:10046000a00188004440a800000006009101880017
:10047000800078000000eb0015003700e2804000ab
:1004800032a0b4009101ba00e280400032a0b40072
:100490009102ba00e280400032a0b4000002eb00fa
:1004a000472bde00f507b200602ce10004003a00a3
:1004b0000059eb008301e900fdff3e000400370016
:1004c0006128e100010032000082eb000400070017
:1004d0001101ba000200e000e8ff3a000000060047
:1004e0003159ba008301e9000c0032002159ba00e9
:1004f0008301e900080032000400e00003003a0034
:10050000e280400032a0b400f5ff370011d9ba00f4
:100510008301e900faff3a008100e800e180400031
:1005200032a0b40000000600fe1704000000000026
:100530008a1b040000000000741b0400000000007f
:100540006a1b040000000000601b040000000000a3
:10055000a01b040000000000d61d040000000000e5
:10056000261c0400000000000040da000000fe002d
:100570000002780002003700315a78000201e900d9
:10058000e00f5100fcff3a00000006000002780076
:1005900002003700015a78000201e900e00f510023
:0805a000fcff3a000000060018
:020000040000fa
:1005a8001201000000020000ef0200000108000034
:1005b800d8040000570000000100000001020000fc
:1005c80000010000090200006200000003010000b1
:1005d80002c0000032090000040000000002000010
:1005e8000806000050000000070500008102000016
:1005f8004000000001070000050100000240000063
:1006080000010000080b00000102000002020000c7
:1006180001000000090400000100000001020000c0
:100628000201000000050000240000002001000075
:100638000424000002020000052400000601000056
:100648000205000024010000000200000705000068
:10065800820300000a0000000209000004020000f2
:10066800000200000a00000000000000070500006a
:10067800030200004000000000070000058300009e
:10068800024000000000000004030000090400000c
:10069800340300004d000000690000006300000002
:1006a800720000006f000000630000006800000096
:1006b80069000000700000002000000054000000e5
:1006c8006500000063000000680000006e00000084
:1006d8006f0000006c0000006f0000006700000061
:1006e8007900000020000000490000006e000000b2
:1006f800630000002e0000003a0300004d000000d7
:100708006900000063000000720000006f00000034
:10071800630000006800000069000000700000002d
:1007280020000000430000006f0000006d00000082
:10073800700000006f0000007300000069000000f6
:100748007400000065000000200000004400000064
:1007580065000000760000006900000063000000ea
:10076800650000000000000000000000e6820000b4
:10077800488300004c830000808300000080000054
:100788000402000020000000000000004d69000085
:10079800637200006f630000687000004d61000024
:1007a8007373000020530000746f00007261000032
:1007b8006765000020200000202000003030000085
:1007c8003031000042750000747400006f6e000044
:1007d800205000007265000073730000656400001b
:1007e800202d00002d2000000d0a00000000000050
:020000040000fa
:1007f8000200fa009ec0a9000082eb007424880061
:100808000082eb00542488000002eb005425880085
:10081800620020008000eb00c04a200059ff07005a
:1008280024002000342588000002eb0044258800bd
:100838008644a900f409200084248800f4092000d3
:10084800642488008804a80004c020004822de0030
:10085800c42488000042eb00044f780008003700e9
:100868001e4078000082fb00c222dd0004c0200088
:10087800048342006022b800048bbe001e4fe800cb
:100888001e427800ef4f5200f5ff36009424a8006e
:100898000002eb00b424880094a4a9009424a900c1
:1008a8001200370084002000542488000042eb0026
:1008b800044078001ee8b7000042eb0004407800ce
:1008c80024e8b70054822000144278006042620095
:1008d8000440780025e8b7006482200014427800bc
:1008e800604262000440780026e8b7005424800083
:1008f80068026200e00f5200eaff3a00140020008c
:100908000442880014002000144288000002eb0012
:10091800244288000002eb00344288000002eb0009
:10092800744188000042eb00044f78001b00370038
:100938009e4278000582fb002581200004024200c7
:10094800048242008002eb00050a78001e4078000d
:100958000082fb00a58020000402420004824200bd
:100968008002eb00050a78001e4278008482fb00b2
:1009780044832000848242000042eb00844a7800cd
:100988001e4078008082fb0084832000848242001d
:100998000042eb00844a78001e4fe8001e427800af
:1009a800e34f5200e2ff36002481200085c020007a
:1009b800050a7800d400200054258800848420008b
:1009c8001460880084c0b3000440780000ecb700cd
:1009d80044c8b3000440780001ecb7000042eb00c3
:1009e8000440780002e8b7000002eb0004408800e9
:1009f8000080fa00000006003600f800809fbe0064
:100a0800829fbe00849fbe00869fbe003400f8000f
:100a180000002000a00188000200fa0004408000c5
:100a2800e10f52000b003a00a524800004042000c6
:100a380004826200e00f520006003a000082eb00d8
:100a4800542488008c04a8008c84a800240020006a
:100a5800044088000424800070026200e00f520005
:100a6800070032001424800070026200e00f520078
:100a7800030032000401200004248800a9040700b0
:100a88004424800062026200e00f5200020032003b
:100a98008ec0a900a80037005424800061026200bb
:100aa800e00f52000a0032006424800061026200f4
:100ab800e00f5200060032004dff07009ec0a8005c
:100ac80044002000044088001400200054248800ba
:100ad8005424800070026200e00f520007003200c8
:100ae8006424800070026200e00f520003003200ac
:100af8008004070004012000542488005424800046
:100b080064026200e00f5200180032006424800082
:100b180064026200e00f520004003200120020005c
:100b28008000eb0030072000920a070044002000f4
:100b380054248800c483200014427800e04f5200f7
:100b480005003200c4832000144278000442e90002
:100b5800044078003ce8b700c483200014427800c1
:100b6800e04f520001003a00a6010700552480001a
:100b78000408200004826200e00f520006003200e0
:100b8800652480000408200004826200e00f5200ff
:100b9800010032003f040700542480006202620012
:100ba800e00f52000c0032006424800062026200f0
:100bb800e00f520008003200120020008000eb0015
:100bc800f0ff27006b0a07000082eb0074248800fe
:100bd800240020005424880004408000e30f5200c1
:100be80002003e008ec0a900530037006424800034
:100bf80068026200e00f52004e0032000042eb0033
:100c0800044f7800460037005424800068026200d0
:100c1800e00f52004600320094248000044278001d
:100c28000440780030e8b7000483200014427800bc
:100c38000482fb004422de0004427800044078006d
:100c480031e8b70084002000542488000483200081
:100c58001442780068426200e04f520013003a00e4
:100c680014832000144278000483fb008482fb0074
:100c780084832000048242009442780061c26200aa
:100c88000404a200614262008583200085034300ba
:100c98006142620017437800e5cfb30085426300e4
:100ca80004c27200844b78001200370014832000bd
:100cb800144278000483fb008482fb0044832000f4
:100cc8000482420014407800614260000404a200db
:100cd800614262004583200085034300614262004f
:100ce80017437800e5cfb3008542630004c2720061
:100cf800844b78001483200014427800e04f52009f
:100d080002003a0013040700040037000001eb005a
:100d18000183200020072000160a07001e4fe80064
:100d28001e427800e34f5200b7ff3600010037003b
:100d3800000000008ec0a9000080fa003400f9000d
:100d48004f03be004f02be004f01be004f00be0061
:100d58003600f900004006000400fa002047980019
:100d6800314798003e4290000482fb00680262000e
:100d7800e00f5200030032008040eb002e4090004c
:100d8800870107003e4290000482fb006402620073
:100d9800e00f52000300320011c0b3002e40900053
:100da8007f010700a54a20002e4290000482fb0024
:100db80004024200048f42001e027800be429000e6
:100dc800054a78000080fa00000006000800fa00d2
:100dd80020479800314798002207980063479800f9
:100de8003e429000e04f5200070032002e42900031
:100df8000482fb0025812000040242000482420094
:100e0800140f7800060037002e4290000482fb0081
:100e1800a58020000402420004824200140f7800da
:100e28001e027800e00f520002003a000002eb00b8
:100e380030003700ae0290001e02780015029800bc
:100e48001e027800ee429000054a78001e027800e3
:100e5800144290000444b2009e0278009442980024
:100e68001e0278009442900084c8b30004c2720045
:100e78009e027800944298003e429000e04f520053
:100e88000e003200258120002e4290000482fb00d3
:100e98000402420084824200268120002e429000f3
:100ea8000482fb000402420004024300144278005a
:100eb8000424a200844a78000d003700a580200091
:100ec8002e4290000482fb00040242008482420009
:100ed800a68020002e4290000482fb0004024200fb
:100ee80004024300144278000424a200844a7800d3
:100ef8001e027800040078000080fa000000060056
:100f08000400fa0020479800314798002e429000cc
:100f1800e04f52000e003a004540800084c0b30004
:100f2800844a780044408000858420001502980097
:100f380045408000c4c8b300944298002481200032
:100f48009402780044c8b300944298002200370005
:100f58002e4290000482fb000402420084027800c2
:100f68003e4290000482fb00048242004322dd00de
:100f78008402780004c02000048f42001e0278001a
:100f88009442900044c8b30004c272009e027800e4
:100f9800944298002e4290000482fb000402420012
:100fa800840278003e4290000482fb0004824200e2
:100fb8004322dd00e402420004c02000048f420006
:100fc8001e0278009442900044c8b30004c2720024
:100fd8009e027800944298000080fa000000060003
:100fe8000200fa00004f7800a524800004022000c7
:100ff80004826200e00f52005b0032009e427800db
:101008000582fb0025812000040242000482420080
:10101800140078001e4378000682fb00258120001a
:101028000402420004824200140278001403be0045
:1010380004042000050020008600780007037800db
:10104800840378000502780087806000040263004a
:1010580005002000c022dd00040020000403be00bb
:10106800610ab80004037300858373000688be0014
:101078009e4378000782fb0025812000040242007d
:1010880004824200140078009e4278000582fb002a
:1010980025812000040242000482420014027800e4
:1010a8001403be00040420000500200004026b00a5
:1010b80085826b000488be00258120001e437800cd
:1010c8000682fb000402420084824200268120003e
:1010d8009e4378000782fb0004024200040243009a
:1010e800144278000424a200844a78009e427800c2
:1010f8000582fb0025812000040242000482420090
:10110800940278001e4378000682fb0026812000a6
:1011180004024200040243001402780014429000c2
:101128000444b200944298009e4378000782fb0072
:101138002581200004024200048242001403780042
:101148009e4278000582fb002581200004024200af
:1011580004824200140278009442900004c4b30050
:1011680004c26a00144398000080fa0000000600d8
:101178000000fa000002eb00a42488000002eb0043
:10118800642488000002eb00044088000080fa0014
:10119800000006000000fa0004408000e00f520042
:1011a80016003a000002eb00a42488000002eb00bd
:1011b8006424880024002000342588000002eb0005
:1011c800442588008644a900f40920008424880066
:1011d800f4092000642488009ec0a800010037009c
:1011e8009404a800a424800061026200e00f520069
:1011f800fbff320014002000044088000080fa0041
:10120800000006000000fa0004428000e00f5200cf
:101218002e003a0014002000044288001442800086
:10122800e00f520029003a00140020001442880000
:10123800b481200014427800e24f520009003a00bd
:1012480024812000940278000042eb00844a780050
:10125800248120009402780084ccb3009442980042
:101268001a003700b481200014427800e14f520080
:1012780016003a000002eb009441880035408000d7
:1012880084c0b300844a78003440800085842000fc
:10129800150298003540800044c8b3009442980075
:1012a80014002000944188004540800084c0b300a9
:1012b800844a780044408000858420001502980004
:1012c8004540800004c8b300944298000080fa00aa
:1012d800000006000000fa000002eb00244288002b
:1012e8000002eb0034428800b481200014427800e8
:1012f800e24f52000a003a004540800084c0b30023
:10130800844a780044408000058520001502980032
:101318004540800084ccb300944298001e003700fa
:10132800e4842000144278008482fb00f4842000c6
:10133800144278000482fb004822dd000502720096
:101348008402780004418000848f52000900310033
:10135800e4842000144278008482fb00f484200096
:10136800144278000482fb004822dd000502720066
:10137800044188008a0007002481200014027800b4
:101388000585200015029800248120009402780029
:1013980084ccb300944298000080fa000000060054
:1013a8000400fa00204798003147980004c0200044
:1013b800040f78002e4290000482fb0004024200d1
:1013c800840278003e4290000482fb0004824200be
:1013d8004322dd001e0f42009e02780015027800ad
:1013e80004f0a100840a78003e429000e04f5200c9
:1013f80007003a002e4290000482fb00a5802000de
:1014080004024200048242001e0a780006003700e7
:101418002e4290000482fb00258120000402420035
:10142800048242001e0a78009e02780015027800a5
:1014380004e0a100840a78001e027800e402420059
:101448001502780004e0a000840a78000080fa0001
:10145800000006000000fa0094a4a900f5408000ee
:101468000408200004826200e00f520020003a00c5
:10147800458220009542780004c8b30004c2620087
:10148800e04f52000c00320024c0b3000440780042
:101498001be8b70034428000e00f520001003a0018
:1014a8008cff07000002eb00144288000002eb00ea
:1014b80004428800380037004540800084c0b300eb
:1014c800844a7800444080008584200015029800f2
:1014d80045408000c4c8b30094429800248120008d
:1014e8009402780044c8b300944298002a00370058
:1014f800858420009542780004c8b30004c26200c5
:10150800e04f52001000320014c0b30004407800cd
:101518001be8b70024428000e00f520001003a00a7
:101528006cff07000002eb00144288000002eb0089
:1015380004428800f4418000e00f520016003a008f
:1015480030ff07001400370024c0b30004407800bf
:101558001be8b7004540800084c0b300844a780087
:101568004440800085842000150298004540800092
:1015780044c8b300944298000002eb00144288006b
:101588000002eb0004428800f4418000e00f5200a2
:1015980001003a001bff07000080fa000000060067
:1015a8000200fa0084c0b300044f780004418000b0
:1015b800e70f520011003e0004418000044f7800fc
:1015c800a481200014427800e04f520004003a0041
:1015d80014c0b300044078001ae8b70007003700c9
:1015e800a481200014427800e14f520003003a0021
:1015f80024c0b300044078001ae8b7000541800011
:101608001e4378000682fb000482520004418800d1
:1016180024812000140278001e4a780004852000e6
:1016280054418800f440800061026200e00f5200db
:1016380017003a000900370056418000e540800055
:1016480015427800044b78000602e80054418800ef
:101658000502e800e44088001e4fe9001e427800b9
:10166800e04f5200f4ff3a000c003700564180006a
:10167800e540800015427800044b78000602e80037
:10168800544188000502e800e44088001e4fe90044
:101698001e427800e04f5200f4ff3a000080fa0042
:1016a800000006000200fa0034408000144f780061
:1016b8001e4078008082fb0054822000144278008b
:1016c8000483fb0064822000144278000482fb003b
:1016d8004822dd0006027200848f5200090036009d
:1016e80054822000144278008482fb006482200027
:1016f800144278000482fb004822dd0005027200d3
:10170800044f780054822000144278008482fb0041
:1017180064822000144278000482fb004822dd0025
:1017280005027200840278001e4378000682fb00de
:1017380084825200f40f2000048362005482200047
:101748001442780060426200064272000440780049
:1017580025e8b700c82ade00648220001442780019
:1017680060426200054272000440780026e8b70033
:101778000042eb0014479800220037002482200022
:10178800144278008482fb003482200014427800de
:101798000482fb004822dd00050272008402780002
:1017a8001e4290000483fb000485200004024300cd
:1017b80014427800844a78008502e800f40f20007b
:1017c8000483620024822000144278006042620090
:1017d800064272000440780022e8b700c82ade00fa
:1017e8003482200014427800604262000542720090
:1017f8000440780023e8b7001e4290000442e80045
:10180800144798001e4290009e4f5200dbff39009b
:1018180054822000144278008482fb0064822000f5
:10182800144278000482fb004822dd0005027200a1
:10183800e00f5200140032004540800084c0b3001d
:10184800844a7800444080000585200015029800ed
:10185800344080009402780004002400048262006e
:10186800e00f520004003a004540800084ccb300e9
:1018780094429800250037004540800084c8b30092
:1018880094429800210037004540800084c0b3008e
:10189800844a78004440800085842000150298001e
:1018a8004540800044c8b3009442980074822000e8
:1018b800144278008482fb0084822000144278005d
:1018c8000482fb004822dd0005027200e00f52008e
:1018d8000900320074822000144278008482fb00e0
:1018e80084822000144278000482fb004822dd0034
:1018f800050272000400010024e8a900f4418000f8
:10190800e00f520001003a003efe07000080fa0096
:10191800000006000200fa001ee8a800620020008d
:101928008000eb00c04a200016fb070002042000dc
:101938008000eb0000c0200012fb07009424a800e0
:101948000042eb00044f78000d0037001e4078007d
:101958008082fb0044832000848242000042eb0026
:10196800844a78001e4278008482fb008483200029
:10197800848242000042eb00844a78001e4fe8004f
:101988001e427800e34f5200f0ff3600320020007c
:101998008000eb0030802000fafa07009424a900a8
:1019a8002481200085c02000050a780004c020009a
:1019b800344088003440800044408800a4842000db
:1019c800144278000440780002e8b7002480200020
:1019d80014427800e04f520003003a00040120004e
:1019e80004408800060037001200200021802000f3
:1019f80010002000df0607000402200004408800d1
:101a08000080fa00000006000000fa00858420002b
:101a18009542780004c8b30084cf52003f003a00d2
:101a280004ccb300044078001ee8b700b48420005a
:101a3800144278000482fb00e20f520009003200d1
:101a4800e30f52001b003200e10f52002f003a0052
:101a5800442d2800e4408800240120000441880027
:101a68002e003700a4842000144278000482fb0072
:101a78000402420084027800a43b28000482420049
:101a880014027800e4408800e44080000482e80002
:101a9800144278000440780020e8b700e440800051
:101aa80063024200144278000440780021e8b7003d
:101ab8001a003700a484200014427800e24f520034
:101ac8000e003e00a4842000144278000482fb002b
:101ad8000402420084027800c43b280004824200c9
:101ae80014027800e4408800e44080001442780042
:101af8000482fb0004418800080037000042eb0024
:101b0800044078001ee8b700040037000042eb00ec
:101b1800044078001ee8b700000000000080fa00ca
:101b2800000006000200fa000042eb0004407800c2
:101b380050e8b7000042eb000440780051e8b700d5
:101b480084842000144278007f4262000482fb00f3
:101b5800e10f520013003200e20f5200130032006e
:101b6800e00f52003e003a001ee8a800048520005d
:101b7800144278000404a0000440780050e8b7003c
:101b880064418000e10f520030003a0004852000d3
:101b9800144278000414a0000440780050e8b7000c
:101ba8002f0037001ee8a8002d0037001ee8a80007
:101bb800c58420009542780004c8b30004c26200be
:101bc800e04f520009003a00c48420001442780013
:101bd8006f4262000482fb00a580200004024200dc
:101be80004824200140f780008003700c4842000e3
:101bf800144278006f4262000482fb0025812000b5
:101c08000402420004824200140f78001e02780089
:101c1800940278000400280004826200e00f520059
:101c28000c0032001e027800940278000440200064
:101c380004826200e00f52000800320014c0b300b2
:101c48000440780050e8b7000500370000000000a5
:101c5800030037000000000001003700000000000a
:101c6800f54080000408200004826200e00f520062
:101c78000600320004852000e44088001e08a80001
:101c880024c0b3000440780020e8b7000080fa00c0
:101c9800000006000000fa0054258000620262007d
:101ca800e00f52000f003200344080009442900050
:101cb80004c8b30084cf520009003a0024812000f0
:101cc800140278009442900044c8b30084cf5200b4
:101cd80003003a0035408000c4c8b300944298001d
:101ce800aa24a90004082000542488000080fa00cf
:101cf800000006000000fa008284a8000401200009
:101d08005424880014002000744188000001eb006e
:101d18008000eb0050072000160607000080fa003c
:101d2800000006000000fa000002eb007441880081
:101d38000001eb008000eb00400720000d060700c3
:101d48008284a90004012000042488000080fa008d
:101d5800000006000200fa00d4c2b3000440780074
:101d68003ce8b70004832000144278008482fb001a
:101d7800b4ff2f0004826200e00f520032003a00e4
:101d880004832000144278000482fb004222de0013
:101d9800044278000482fb00c222dd0004c0200057
:101da8000482420034408800344080004440880067
:101db8008580200084802000144278000424a2003a
:101dc800844a7800344080009402780004c02300dc
:101dd8008482620004402300848f520018003a0075
:101de8000042eb00044f78000d0037001e427800d7
:101df8008482fb0084842000848242003440800076
:101e08001402900014427800844a7800344080001c
:101e1800940290008502e800150298001e4fe80021
:101e28001e427800e74f5200f0ff36003440800031
:101e380085842000150298000d0007000a0037006d
:101e4800510007000800370004832000144278007e
:101e58008482fb00b4ff2f0004826200e80f520066
:101e680001003a00630007000080fa000000060045
:101e78000000fa000042eb00044078001ae8b700be
:101e88000002eb00f44188000002eb0024428800c5
:101e98000002eb00344288000002eb009441880005
:101ea8000042eb00044078001be8b70024812000c2
:101eb80094027800248120001402780014429000d3
:101ec8000474a100944298002581200024812000f8
:101ed800144278000424a200844a78002481200057
:101ee80094027800248120001402780014429000a3
:101ef8000474a100944298002581200024812000c8
:101f0800144278000424a200844a780045408000e6
:101f180044408000144290000474a1009442980048
:101f28000042eb00044078001ee8b7000002eb0016
:101f3800044188000042eb000440780024e8b70020
:101f48005482200014427800604262000440780005
:101f580025e8b700648220001442780060426200dd
:101f68000440780026e8b7007b0007000001eb007a
:101f78008000eb00300020007e05070035fd0700db
:101f88000080fa00000006000000fa00b48120007a
:101f980014427800e24f520002003a00c1fd0700e7
:101fa800120037000042eb00044078001be8b7003d
:101fb80094418000e00f52000a003a00454080003a
:101fc80084c0b300844a780044408000858420009f
:101fd8001502980045408000c4c8b3009442980098
:101fe800020037000002eb00944188000080fa00ec
:101ff800000006000200fa00248120001402780084
:10200800140278004e22de0061426200044f78001c
:102018002581200024812000144278000424a20095
:10202800844a780004408000e80f52000c003a000f
:10203800a4842000144278000482fb00b4248800a1
:10204800b4248000e00f5200030032000401200095
:102058000440880002003700440020000440880043
:10206800b481200014427800e14f52001b003a006e
:1020780024812000140278000585200015029800ac
:1020880047fd0700a481200014427800e24f520067
:1020980005003a00248120009402780044c8b30067
:1020a800944298002a0037001e427800e04f520000
:1020b80005003a00248120009402780084ccb30003
:1020c800944298002200370024812000940278006e
:1020d80084c8b300944298001d0037004582200050
:1020e8009542780004c8b30004c26200e04f520071
:1020f8001400320074822000144278008482fb00ad
:1021080084822000144278000482fb004822dd000b
:1021180005027200e00f52000900320074822000ac
:10212800144278008482fb008482200014427800e4
:102138000482fb004822dd00050272000400010051
:1021480024e8a9000042eb00044078001be8b7002f
:102158000080fa00000006000000fa0084842000d5
:10216800144278000446b200e04f520045003a009d
:1021780094842000144278000482fb00cfa2de0081
:10218800b600200007002000860f5200878f5a00f3
:102198003e003e00046001001b0037001c003700b1
:1021a8003c0037001a0037003a00370006003700b5
:1021b800090037002e0037000b00370008003700f1
:1021c80015003700200037001ee8a8008400200012
:1021d80004408800300037000bfe07002e0037004f
:1021e800ccfd07002c00370024802000e440880044
:1021f8001e08a80014c0b3000440780020e8b70007
:102208001ee8a8002400370046fe07002200370019
:102218002300070020003700c484200014427800ff
:102228008482fb003480200004824200e44088005d
:102238001e08a80014c0b3000440780020e8b700c6
:102248001ee8a800140037001ee8a800c484200077
:10225800144278000483fb00a48420001442780010
:102268003580200085024300844a78000a00370040
:102278000001eb008000eb0020002000bd040700f7
:1022880005003700000000000300370000000000d0
:1022980001003700000000000080fa00000006007e
:1022a8000600fa00a484200014427800e14f52008e
:1022b8000f003a0084842000144278007f426200b4
:1022c800e04f52000a003a001ee8a800948420005b
:1022d80014427800e34f520003003a001400200033
:1022e80064418800020037000002eb006441880066
:1022f800a484200014427800e04f5200f8003a000d
:1023080084842000144278007f426200e24f520029
:10231800f3003a00c4842000144278006f4262003f
:10232800e04f5200ee003200c484200014427800ce
:102338006f4262000482fb00e30f5200e8003c0099
:102348000540800004022000848f5200e4003a0017
:102358001ee8a800c58420009542780004c8b30090
:1023680004c26200e04f520012003a00c484200008
:10237800144278006f4262000482fb00a5802000ae
:1023880004024200048242001402780014079800f4
:10239800c4842000144278006f4262008482fb00eb
:1023a8008483200004824200144278004447980045
:1023b80011003700c4842000144278006f42620084
:1023c8000482fb00258120000402420004824200ae
:1023d8001402780014079800c4842000144278007e
:1023e8006f4262008482fb00448320000482420022
:1023f80014427800444798004e42900061426200bf
:10240800e04f520007003a000e83e8000e82e80011
:1024180094427800b4cfb30004c26200044b780041
:10242800050037008e82e8000e82e800144278002a
:102438000424a000844a7800c584200095427800ce
:1024480004c8b30004c26200e04f52000a003a0018
:10245800c4842000144278006f4262000482fb00aa
:102468009e029000a680200004024200040243005d
:10247800050a780009003700c48420001442780057
:102488006f4262000482fb009e02900026812000b9
:102498000402420004024300050a780094842000e4
:1024a80014427800e34f520026003a001e029000c2
:1024b800940278000400280004826200e00f5200b1
:1024c80019003200c58420009542780004c8b30082
:1024d80004c26200e04f52000a003a00c48420009f
:1024e800144278006f4262008482fb0084832000db
:1024f80084824200154278000410a000844a7800c3
:1025080009003700c4842000144278006f4262003a
:102518008482fb00448320008482420015427800b4
:102528000410a000844a78001e0390001e02900048
:102538009442900044c8b30004c272001443980047
:10254800670037008e82e8000e82e80014427800a7
:102558000424a200844a78001e02900094027800a5
:102568000400280004826200e00f520011003200cb
:102578009e0290001e029000144290000474a10074
:10258800944298001e0390001e029000944290000e
:1025980004c4b30004c27200144398001e029000e1
:1025a800220020008400780050002000f10307007a
:1025b800060037001e0390001e029000944290000f
:1025c80004c4b30004c27200144398008e82e80069
:1025d8000e82e800144278000424a200844a78009d
:1025e8004e42900062426200e04f520006003a00fc
:1025f8001e02900094027800040028000482620001
:10260800e00f520024003200c58420009542780073
:1026180004c8b30004c26200e04f52000a003a0046
:10262800c4842000144278006f4262008482fb0058
:102638008483200084824200154278000410a1009f
:10264800844a780009003700c484200014427800c6
:102658006f4262008482fb0044832000848242002f
:10266800154278000410a100844a78009e02900068
:102678001e02900014429000b443b20094429800a5
:102688001e029000220020008400780050002000e4
:10269800b8030700050037009e0290001e02900054
:1026a80014429000b443b20094429800a54a200016
:1026b800c4842000144278006f4262000482fb0048
:1026c80004024200048f42001e02780094427800ff
:1026d800d4cfb30004c262009e027800844a780016
:0826e8000080fa00000006006a
:020000040000fa
:1026f0000000fa0084842000144278007f426200c7
:10270000e14f52008f003a00848420001442780088
:1027100000c6b3008042620004c2b30084cf5200fe
:102720008a003a00c484200014427800e14f52002d
:1027300004003200c484200014427800e24f5200aa
:1027400084003a0094842000144278000482fb0044
:10275000cfa2de002602200007002000860f5200d4
:10276000878f5a007d003e00046001002200370080
:10277000280037007b0037007a00370079003700e7
:102780007800370077003700760037007500370093
:102790007400370073003700720037007100370093
:1027a000700037006f0037006e0037006d00370093
:1027b0006c0037006b0037006a0037006900370093
:1027c0006800370067003700660037006500370093
:1027d0006400370063003700620037006100370093
:1027e000600037005f0037005e0037000d003700e3
:1027f000460037004d00370084bc2000e4408800cc
:1028000084002000044188001e08a8001ee8a800db
:102810005500370084bc2000e44088001ee8a80072
:1028200051003700e4842000144278008482fb00c9
:10283000f4842000144278000482fb004822dd006a
:102840000502720084027800f40f20000483620005
:1028500054822000144278006042620006427200f6
:102860000440780025e8b700c82ade006482200012
:102870001442780060426200054272000440780011
:1028800026e8b700050c2100f40f20000483620045
:1028900024822000144278006042620006427200e6
:1028a0000440780022e8b700c82ade003482200005
:1028b00014427800604262000542720004407800d1
:1028c00023e8b700e57f2100f40f200004836200b5
:1028d0007482200014427800604262000642720056
:1028e0000440780027e8b700c82ade008482200070
:1028f0001442780060426200054272000440780091
:1029000028e8b70024e8a80017003700e4ba200040
:10291000e4408800740020000441880014ccb30017
:10292000044078001ee8b7000f003700a4842000a0
:102930001442780004407800c2ebb7001ee8a800fb
:102940000900370000000000070037000000000009
:102950000500370000000000030037000000000001
:1029600001003700000000000080fa0000000600af
:102970000000fa0004b0240005002000745d880007
:10298000855d88000042eb0004407800b2ebb700a0
:102990000042eb0004407800b3ebb70084c0b30002
:1029a00004407800b4ebb7000042eb00044078002c
:1029b000b6ebb70051c1b30020c0b300e8f8070080
:1029c000d1c1b30030c0b300e5f8070003c4b300c1
:1029d000020821008040eb0030c0b300fdf8070082
:1029e00000027800f45d88000002eb00045e8800bd
:1029f0000042eb0004407800b7ebb7000080fa001b
:102a0000000006000600fa00000f78001107980089
:102a1000220798001e027800e50f520017003a00c6
:102a2000f45d80009e029000848f520007003a00ff
:102a300003c4b300020821008040eb0030c0b300a3
:102a4000e4f8070000027800f45d8800045e80006e
:102a50009e029000848f520006003a000042eb0074
:102a600004407800b7ebb7000042eb000440780068
:102a7000bcebb70014002000010037000002eb009f
:102a8000040078000080fa00000006000400fa004c
:102a9000000f7800214798000042eb0004407800c6
:102aa000b6ebb700f45d8000e00f52000600320084
:102ab000f45d800094027800040028000482620023
:102ac000e00f520027003a00f45d80009442780045
:102ad0002e42900084cf520003003100f45d80004c
:102ae00094427800254798000042eb0004407800ab
:102af000b6ebb7000f00370064bb2000144278002b
:102b00000482fb009e02420064bb20001442780055
:102b10000482fb000608210066427a00844a78009d
:102b200064bb2000144278000442e80004407800ae
:102b3000b6ebb70065bb2000954278002e429000ae
:102b400084cf5200ecff390003c4b3000208210017
:102b50008040eb0030c0b3009ef807000002780010
:102b6000f45d880064bb20001442780004407800c3
:102b70000080fa00000006000400fa00000f780050
:102b8000214798009ec0a90074bb20001442780021
:102b9000e04f52000a003a001e027800c45d88002f
:102ba0002e409000bcebb70014c0b3000440780086
:102bb000bdebb70014c0b30004407800b7ebb7001a
:102bc0009ec0a8000080fa00000006000600fa007f
:102bd000200798009ec0a90074bb20001442780012
:102be000e04f5200020032009ec0a80020003700d3
:102bf0000042eb00044f78002e0090001007980070
:102c00001e4fe8001e427800e14f42000c003200e7
:102c10001e029000144278000482fb000402ea00c5
:102c20004f22de00044278009e0290008502e800f8
:102c300015079800e04f5200f1ff3a0001003700fd
:102c4000000000002e029000c45d88001e40780045
:102c5000bcebb70014c0b30004407800bdebb70074
:102c600014c0b30004407800b7ebb7009ec0a800c2
:102c70000080fa00000006000600fa002007980015
:102c80009ec0a90074bb200014427800e04f52009f
:102c9000020032009ec0a800200037000042eb0076
:102ca000044f78002e009000100798001e4fe80097
:102cb0001e427800e14f42000c0032001e029000dc
:102cc000144278000482fb000402ea004f22de0076
:102cd000044278009e0290008502e80015079800e3
:102ce000e04f5200f1ff3a00010037000000000001
:102cf0002e029000c45d88001e407800bcebb70037
:102d00000042eb0004407800bdebb70014c0b300f4
:102d100004407800b7ebb7009ec0a8000080fa001e
:102d2000000006000200fa009ec0a900045e8000b8
:102d3000e00f520008003200045e80009402780028
:102d40000400280004826200e00f520002003200fa
:102d50009ec0a8007100370074bb200014427800a8
:102d6000e34f520003003a000042eb0004407800b9
:102d7000b7ebb70074bb200014427800e04f52005c
:102d800002003a009ec0a8006400370074bb200017
:102d900014427800e24f52000b003a008041eb00f1
:102da0000001eb0011c0b30030c0b30009f8070008
:102db00000027800045e880034c0b300044078004c
:102dc000b7ebb7005400370074bb20001442780002
:102dd000e14f520050003a00c5bb200095427800f8
:102de00004c4b30084cf52000300360004c4b3000f
:102df000044f780003003700c4bb20001442780061
:102e0000044f7800c4bb2000144278001e425200d8
:102e100004407800bcebb70004042100d45d8800b6
:102e20001e42780014479800d4bb2000144278005a
:102e3000e04f52001f003a000d003700d55d8000c2
:102e4000c45d800014427800844a7800d45d80001c
:102e50000402e800d45d8800c45d80000402e8003c
:102e6000c45d88001e4290000442e90014479800a7
:102e70001e429000e04f5200f0ff3a001000370071
:102e8000d55d8000c45d800014427800844a7800db
:102e9000d45d80000402e800d45d8800c45d800039
:102ea0000402e800c45d88001e4290000442e9006c
:102eb000144798001e429000e04f5200f0ff3a0085
:102ec000c4bb200014427800e04f52000b003a00cf
:102ed00004c4b3009e42780084cf520004003a003c
:102ee00024c0b30004407800b7ebb70003003700fc
:102ef00034c0b30004407800b7ebb7009e417800bf
:102f00000204210011c0b30030c0b300b1f70700c4
:102f100000027800045e88009ec0a8000080fa00cd
:102f2000000006000000fa00030007009bf80700fd
:102f300060000700feff37000000fa000082eb008f
:102f400064198800030007002bf607000080fa00d0
:102f5000000006000200fa000042eb00044f780077
:102f6000070037001e4078008082fb0064a8200024
:102f7000848242000042eb00844a78001e4fe80041
:102f8000f4c3b3009e42780084cf5200f5ff3600b0
:102f90000042eb000440780006ebb7000042eb0073
:102fa0000440780007ebb7000002eb00545888009b
:102fb0000042eb000440780050ebb7000002eb0049
:102fc000745a88000002eb00645a880025168000bd
:102fd000040f200004826200241688000516800079
:102fe000040f20000482620004168800d8c2a800e2
:102ff000d8e2a8000080fa00000006000000fa00f5
:10300000060c2100964078000183fb00170c21007c
:10301000174278008483fb00c83bdd000683730001
:1030200006027800260c2100964378000783fb00f7
:10303000370c2100974078008183fb00c83bdd00fe
:10304000068373008602780006202c0017002000fb
:10305000860f5200878f5a0014003e00060c210094
:10306000164278000483fb00170c2100974078007b
:103070008183fb00c83bdd000683730006027800f5
:10308000260c2100964378000783fb00370c2100b3
:10309000974078008183fb00c83bdd000683730006
:1030a00086027800745d8800855d88000080fa00e3
:1030b000000006000200fa00b45e8000e00f52003b
:1030c000010032005800070004408000ff0f52004a
:1030d000500036004424800062026200e00f52007b
:1030e0004e003a00745a8000e00f52000c0032008b
:1030f000645a8000e00f52000b003a0074bb2000bd
:1031000014427800e04f520007003a00603e280069
:10311000d9fe070014002000645a8800020037001e
:103120000002eb00645a880074bb2000144278004f
:10313000e04f520034003a0001c4b30060a8200000
:1031400052fe070000427800144798001e4290008b
:10315000e04f52002c0032000042eb00044f780098
:10316000220037001e4278008482fb0064a8200001
:1031700004824200144278000402fb00ea0f52006d
:1031800002003200ed0f52000b003a001e427800a0
:103190000483fb001e4278008482fb0064a82000a8
:1031a0000482420014427800c5b02000850243002a
:1031b000844a78000c0037001e4278000483fb002c
:1031c0001e4278008482fb0064a820000482420032
:1031d000144278000442e800c5b020008502430094
:1031e000844a7800000000001e4fe8001e42900054
:1031f0009e42780084cf5200daff39009e40900052
:10320000c0b020005cfe0700c6fe07003f160700a6
:10321000030037000000000001003700000000003c
:103220000080fa00000006000000fa00a45a8000a6
:10323000e00f520002003a0004712200a45a8800f4
:10324000a45a80000402e900a45a880044248000a3
:1032500062026200e00f520019003200a45a80009e
:10326000e00f520060003a00241680006102620004
:1032700004f0a7000402ea000402e9004f22de0085
:10328000044278000482fb0061026200261680007e
:10329000e5ff2f0085026300048272002416880077
:1032a0002416800061026200e00f5200020032002a
:1032b000c422a8004c003700c422a9004a003700ed
:1032c00004408000e00f520003003a00c402a9004d
:1032d000c422a9004400370004408000e10f5200de
:1032e00003003a00c402a800c422a8003e00370030
:1032f00004408000e20f520003003a00c402a8001c
:10330000c422a9003800370004408000e40f5200b6
:1033100003003a00c402a900c422a800320037000a
:1033200004408000f00f520013003a00a45a8000bd
:10333000e00f52002c003a00241680006102620067
:1033400004f0a7000402ea000402e9004f22de00b4
:10335000044278000482fb006102620026168000ad
:10336000e5ff2f00850263000482720024168800a6
:10337000c422a9001c003700054080000402200080
:10338000848f520018003a00a45a8000e00f5200c7
:1033900015003a00241680006102620004f0a700c4
:1033a0000402ea000402e9004f22de000442780031
:1033b0000482fb006102620026168000e5ff2f00f8
:1033c000850263000482720024168800241680009f
:1033d00061026200e00f520002003200c422a90024
:1033e00001003700c422a8000080fa000000060097
:1033f0000000fa000080fa00000006000000fa0059
:103400000080fa00000006000000fa00d4168000d8
:103410004622de00614262008482fb00745a800012
:10342000848f520016003a0004b520001442780040
:10343000e04f52000600320004b52000144278002c
:103440000442e9000440780050ebb7001500370053
:10345000d5168000040420000482620004f0a70056
:103460000402ea000402e9004f22de00745a8800d8
:1034700044c6b3000440780050ebb70009003700a1
:1034800004b5200014427800e04f520005003200dd
:1034900004b52000144278000442e900044078009a
:1034a00050ebb7000080fa00000006000000fa00b0
:1034b0000080fa00000006000000fa001e15070058
:1034c0008bfc07000080fa00000006000000fa00f4
:1034d0000080fa00000006000000fa00d1c1b3002d
:1034e00010c0b3001ef60700c514070020fd07003a
:1034f0000080fa00000006000000fa00644180002d
:10350000e10f52001b003a0074418000e10f5200ad
:1035100018003a009ec0a900b8ff07008824a9003f
:103520000002eb007441880004e12000945a8800f6
:10353000945a80000402e900945a8800945a80004a
:10354000e00f5200faff3a009444a8008470200073
:10355000945a8800945a80000402e900945a880022
:10356000945a8000e00f5200faff3a009444a900f8
:103570009ec0a8000080fa00000006000600fa00c5
:10358000000f780011079800220798001e027800ab
:1035900025072000850f5200420032002507200039
:1035a000850f52000c003c00e20f52001f00320059
:1035b000e20f520003003c00e10f520019003200fc
:1035c0003b003700e30f52001a003200e50f5200b3
:1035d0001c0032003600370045072000850f5200de
:1035e0000e00320045072000850f5200070035000d
:1035f00055072000850f520006003200f5ff270016
:10360000850f52000d003200290037007eff0700b1
:103610002700370076ff07002500370077ff0700f7
:1036200023003700acff070021003700a7ff070089
:103630001f003700a0ff07001d0037009bff070099
:103640001b003700f45c8000e00f520007003a00d6
:1036500011c0b30010c0b3002bf607008040eb0090
:1036600010c0b30028f6070011003700a480200026
:10367000940290001e029000848f52000b003a00ca
:103680008485200003c4b300040178008040eb006f
:1036900010c0b300cff5070000027800945c8800ea
:1036a00003003700000000000100370000000000a8
:1036b00014002000040078000080fa0000000600da
:1036c0000000fa0014c0b300044078000080fa0043
:1036d000000006000000fa0004202000040078002a
:1036e0000080fa00000006000000fa00140120002b
:1036f000050020000400be000080fa000000060063
:103700000000fa0014c0b300044078000080fa0002
:10371000000006000000fa00e70ba80004202000cb
:10372000445f88000042eb0004407800e6ebb700fd
:1037300064be2000040078000080fa00000006004b
:103740001000fa005007980061079800720798006f
:103750005e039000ee03900014012000050020009d
:10376000840f5300858f5b00020036000042eb009f
:103770003300370032c0bf00604798005e029000ff
:10378000ee02900070034200e0834a00493add00f7
:10379000c732de00850272004932dd00140798004e
:1037a000250798000002eb00040f78001d00370089
:1037b0001e029000ae029000402ade0005002000ac
:1037c000044278000440780032e0b7001e02900006
:1037d0001402ba00440798000e4a9000fe029000be
:1037e000844a78007e0290000402e8007407980082
:1037f0001e4a9000fe029000844a78007e029000eb
:103800000402e800740798001e029000ae029000c7
:1038100062024200e0824a001407980025079800df
:103820001e0fe800f40f20009e027800848f5200e3
:10383000dfff36006e40900032e0b70014c0b300e6
:10384000044078000080fa00000006001400fa002e
:103850006007980071079800020f9800235798009e
:103860006e039000fe03900014012000050020006c
:10387000840f5300858f5b00020036000042eb008e
:10388000b100370024032000144278000482fb00ba
:10389000540798006e029000fe02900070024200f1
:1038a000e0824a00492bdd00c723de008703730056
:1038b0004923dd0004c02f00f5ff2f00060078002b
:1038c0000703780084037800050278000700600091
:1038d0000402630005002000c022dd000400200077
:1038e0000403be006102b800040373008583730003
:1038f00036079800470798000002eb00040f780095
:10390000130037003e029000ce029000402ade00f5
:1039100005002000044278000440780032e0b7003f
:1039200004c420001e024200be0290009502ba00ac
:10393000050a78003e029000ce029000620242002a
:10394000e0824a0034079800450798001e8fe8007f
:10395000f43f20009e027800848f5200e9ff360079
:103960006e0290006102620004427800e04f520053
:1039700003003200042020002407980002003700d2
:103980000002eb00240798000002eb00040f78000f
:103990000b0037002e0290001e0342000e0a90001a
:1039a0001442780005c4200085024300844a780050
:1039b0000e0a90000402e800040f98001e0fe800b1
:1039c000f41f20009e027800848f5200f1ff360021
:1039d0006e029000fe02900070024200e0824a00f7
:1039e000492bdd00c723de00870373004923dd0078
:1039f00004c02f00f5ff2f000600780007037800b1
:103a00008403780005027800070060000402630068
:103a100005002000c022dd00040020000403be00d9
:103a20006102b800040373008583730036079800b1
:103a30004707980024042400043b88003e029000bd
:103a40008082eb00050abb0050cbb30045000700a5
:103a500014002400043b88000042eb002447980037
:103a60000002eb00040f78002e0037003e029000a9
:103a7000ce029000402ade000500200004427800bb
:103a80000440780032e0b70004c420001e02420067
:103a9000940278003e029000050abb003e029000ae
:103aa000ce02900061024200e0824a003407980092
:103ab000450798003e0290008002eb00058abb009b
:103ac0003e029000ce02900061024200e0824a0075
:103ad00034079800450798001e8fe8002e4290009a
:103ae00004c2e800244798002e429000e04f5200a4
:103af0000c003d00ae42900004c8b30004c2420076
:103b0000244798001000fc0054052000343b880036
:103b1000a40a2000343b880061e7a80000000000f0
:103b200000000000f43f20009e027800848f5200c5
:103b3000ceff36005e029000044278000440780018
:103b400032e0b70014c0b300044078000080fa00ef
:103b5000000006000200fa00000f78000080fa0062
:103b6000000006000200fa00004f780054cbb300ba
:103b70009e42780084cf520009003a001000fc00f9
:103b800054052000343b8800a40a2000343b880000
:103b900061e7a800000000000000000001003700fd
:103ba000000000000080fa00000006000000fa009b
:103bb0000042eb00044078000080fa00000006009c
:103bc0000800fa0084248000040f78006424800038
:103bd000140798001424800024079800f40480003f
:103be0004622de0061426200644798000002eb005a
:103bf000842488000002eb00642488000002eb00ab
:103c0000142488008ec0a9008284a800040120002a
:103c1000042488009ec0a8000040fe006e42900070
:103c2000614262000482fb00610262004622dd0004
:103c3000f6048000f5fb2f00850263000482720009
:103c4000f40488001e027800842488001e0290007c
:103c5000642488002e0290001424880014002000a0
:0c3c6000040078000080fa00000006005c
:020000040000fa
:103c6c00e60b00000600000000000000400c000005
:103c7c000004000000000000ec0b0000020000003b
:103c8c000200000000000000000800008602000096
:103c9c0000000000000c00004000000000000000cc
:103cac00401000008a00000000000000ae0b000075
:103cbc002200000000000000560b0000580000001d
:103ccc0000000000860a0000d00000000000000088
:103cdc00d00b0000160000000200000000000000e5
:103cec000000000001008a001b741b006a1b6000ae
:103cfc001ba01b00d61d26001c00000000000000ad
:020000040000fa
:1040000000000000000000000000000000000000b0
:1040100000000000000000000000000000000000a0
:104020000000000000000000000000000000000090
:104030000000000000000000000000000000000080
:10437000f58b000016ea000000000000800100003c
:104380000100000001070000ffe60000010000003e
:10439000000000001100000000000000000000000c
:1043a000000000000000000000000000000000000d
:1043b00000000000000000000000000000000000fd
:1043c00000000000000000000000000000000000ed
:1043d00000000000000000000000000000000000dd
:1043e00000000000000000000000000000000000cd
:1043f00000000000000000000000000055aa0000be
:020000040000fa
:10440000eb3c0000904d0000534400004f5300006f
:10441000352e000030000000020100000100000005
:10442000011000000000000000f800000100000082
:104430003f000000ff00000001000000000000003d
:104440001100000000000000000000002932000000
:1044500067940000c44e00004f2000004e41000051
:104460004d450000202000002020000046410000b3
:104470005431000032200000202000000000000025
:10448000000000000000000000000000000000002c
:10449000000000000000000000000000000000001c
:1044a000000000000000000000000000000000000c
:1044b00000000000000000000000000000000000fc
:1047f00000000000000000000000000055aa0000ba
:020000040000fa
:10480000f80f000000ff00000f0000000000000093
:104810000000000000000000000000000000000098
:104820000000000000000000000000000000000088
:104830000000000000000000000000000000000078
:104840000000000000000000000000000000000068
:020000040000fa
:104c00004472000069760000652000004e610000db
:104c10006d6500002008000000000000000000009a
:104c20000011000000110000000000000000000062
:104c30000011000000000000000000000000000063
:104c4000464900004c4500002020000020200000c4
:104c5000545800005420000000060000287800008e
:104c6000de380000de38000000000000047700009d
:104c7000de38000002000000040000000000000018
:104c80000000000000000000000000000000000024
:104c90000000000000000000000000000000000014
:104ca0000000000000000000000000000000000004
:104cb00000000000000000000000000000000000f4
:020000040000fa
:105000004461000074610000000000000000000026
:105010000000000000000000000000000000000090
:105020000000000000000000000000000000000080
:105030000000000000000000000000000000000070
:105040000000000000000000000000000000000060
:020000040000fa
:020000040000fa
:108800000000fa008485200003c4b300040178004e
:108810008040eb0010c0b3006ee10700000278005a
:10882000945c88002481200014029000a45c8800dd
:108830000042eb000440780056ebb70000c2eb00aa
:108840000440780057ebb7000042eb00044078008a
:1088500058ebb7000042eb000440780059ebb7003a
:108860000002eb00e45c88006022b800345d880000
:10887000455d88006022b800545d8800655d880011
:1088800014002000f45c88000002eb00c45c880047
:108890000042eb000440780069ebb700200037008d
:1088a00094b62000144278000482fb008402420047
:1088b000a4b92000048242008002eb00050a78007f
:1088c000f45e80000400010000427800e04f520096
:1088d0000d003200c45e8000040001000002780038
:1088e000e00f52000800320094b6200014427800d5
:1088f0000482fb0015002000842add00c45c800097
:1089000004827200c45c88003f05070094b6200012
:10891000144278000442e8000440780069ebb70094
:1089200094b6200014427800e04f5200dcff320081
:108930000080fa00000006000000fa008484200095
:10894000144278007f426200e14f520066003a0014
:10895000c484200014427800e04f520064003a00c2
:1089600094842000144278000482fb00e50f20006c
:10897000850f52003c003200f50f2000850f520099
:1089800060003a00a4842000144278008482fb0036
:10899000b4842000144278000482fb004822dd00e9
:1089a00005027200e00f520053003a00e4842000f8
:1089b000144278008482fb00f48420001442780082
:1089c0000482fb004822dd0005027200e00f520025
:1089d0004b003a000042eb000440780056ebb70031
:1089e00000c2eb000440780057ebb7000042eb00f8
:1089f0000440780058ebb7000042eb0004407800d8
:108a000059ebb70014002000f45c8800a48020001b
:108a100014029000e00f520007003200a4802000f2
:108a2000140290009402780004002800048262007e
:108a3000e00f520008003a008485200003c4b30010
:108a4000040178008040eb0010c0b300e1e00700b3
:108a500000027800945c880004c8b30004407800e9
:108a60001ee8b70027003700a484200014427800d5
:108a70008482fb00b4842000144278000482fb004e
:108a80004822dd0005027200e00f52001d003a008e
:108a9000e4842000144278008482fb00f4842000e7
:108aa000144278000482fb004822dd0005027200b7
:108ab000e10f520013003a000042eb00044078003e
:108ac00050e8b70004852000e4408800140020002e
:108ad0000441880014ccb300044078001ee8b700bd
:108ae000000000000700370000000000050037000c
:108af0000000000003003700000000000100370004
:108b0000000000000080fa00000006000200fa00e9
:108b10000540800004022000848f520002003200d1
:108b20000042eb00f40037009ec0a90064b52000ad
:108b3000144278000482fb00cfa2de003600200041
:108b400007002000860f5200878f5a00d6003e0093
:108b500004600100030037008f00370096003700e3
:108b6000a9003700945c8000e00f5200060032003c
:108b7000945c800094027800040028000482620063
:108b8000e00f5200d2003a000042eb00044f7800a0
:108b90000b003700c5b520001e4078000082fb00a6
:108ba00084824200868520009e4378000782fb0075
:108bb0000402430014427800844a78001e4fe80003
:108bc0001e427800fe4f5200f2ff3600945c800097
:108bd00014427800ff4f520066003a00e65a8000c7
:108be000f75a80005435250025342400840f5300a3
:108bf000858f5b005f003a0014002000f45c880061
:108c000094b6200014427800e04f520051003a0020
:108c1000a4b6200014427800f04f52004d003e00f0
:108c2000a4b6200014427800e04f52004900320000
:108c300084b62000144278008482fb00f4032000f4
:108c400004826200e00f520042003a0054352500d1
:108c500025342500c4438800d5438800045b800088
:108c6000155b8000e4438800f54388006022b8006b
:108c700004448800154488000042eb00044078005a
:108c800084e8b70000c2eb000440780057ebb7005f
:108c90000042eb000440780058ebb7000042eb00c4
:108ca0000440780059ebb7000042eb000440780024
:108cb0005aebb700b4b6200014427800e34f5200dc
:108cc0000a0032007f0ba9007f2ba9007f4ba9006f
:108cd0007f6ba9000042eb000440780089ebb700ed
:108ce0000042eb00044078008aebb70084b6200015
:108cf00014427800e04f520004003d0014c0b3005d
:108d00000440780056ebb7000300370024c0b300de
:108d10000440780056ebb700245b8000355b800090
:108d2000e00f5200e08f5a00030032000002eb0017
:108d3000e45c88000200370014002000e45c880036
:108d4000b4b62000144278000440780057ebb70016
:108d50000600370011c0b30010c0b3006ae007007e
:108d60008040eb0010c0b30067e007000000000087
:108d70005e00370011c0b30010c0b30062e007000e
:108d80008040eb0010c0b3005fe007000002eb0082
:108d9000f45c8800550037005a0007000042780054
:108da000e14f42004c003a0034c0b3000440780068
:108db00056ebb7004d003700520007000042780024
:108dc000e14f420046003a004488200014427800f7
:108dd000e04f520008003a0004448000154480002f
:108de000e00f5200e08f5a000300320024c0b300ad
:108df0000440780084e8b70034c0b3000440780031
:108e000056ebb7003900370024812000140290008f
:108e1000e00f52000700320024812000140290006d
:108e2000940278000400280004826200e00f5200df
:108e30002d003a0084872000d3c0b30004017800dd
:108e400011c0b30010c0b300e2df070000027800d9
:108e5000a45c8800945c8000e00f520006003200a1
:108e6000945c800094027800040028000482620070
:108e7000e00f520008003a008485200003c4b300cc
:108e8000040178008040eb0010c0b300d1df070080
:108e900000027800945c88000042eb0004407800f7
:108ea00056ebb700110037000042eb000440780099
:108eb00056ebb70024c0b3000440780084e8b70044
:108ec0008040eb0010c0b3000fe007000700370040
:108ed000000000000500370000000000030037001c
:108ee0000000000001003700000000009ec0a80044
:108ef00064b5200014427800044078000080fa0035
:108f0000000006000000fa00f45e8000040001008a
:108f100000427800e04f52000900320094b6200071
:108f2000144278000482fb0084024200a4b92000ad
:108f30000482420014027800e10f52000b003a0054
:108f400094b62000144278000482fb001500200033
:108f5000042add008482ea00c45c8000048262008e
:108f6000c45c88002d00070027003700c55c800026
:108f700094b62000144278000482fb00042ade002c
:108f800061026200e00f52001e003a00c45e8000e1
:108f90000400010000027800e00f520017003200c8
:108fa00094b62000144278000482fb0015002000d3
:108fb000842add00c45c800004827200c45c8800e6
:108fc0007f0ba9007f2ba8007f4ba8007f6ba90017
:108fd00084c2b3000440780089ebb7000042eb0084
:108fe000044078008aebb70014c0b3000440780056
:108ff00084e8b700390007000300370007000700c6
:10900000010037003500070074b5200014427800d5
:10901000044078000080fa00000006000000fa001a
:1090200074b52000144278000482fb00f20f520055
:1090300021003200f20f520005003c00e00f520008
:1090400016003200e30f5200070032001e00370006
:10905000fe0f520011003200d50f2000850f520084
:109060001700320018003700670307007f0ba900c4
:109070007f2ba8007f4ba9007f6ba900a4c3b3007e
:109080000440780089ebb7000042eb000440780010
:109090008aebb700110007000e00370014c0b300c0
:1090a0000440780084e8b70000c2eb000440780078
:1090b00057ebb7000700370008000700050037002e
:1090c0000600070003003700f0c7b30019040700cb
:1090d000000000000080fa00000006000a00fa000c
:1090e00074b52000144278000482fb00fe0f520089
:1090f000ba003200fe0f52000e003c00f20f520088
:1091000030003200f20f520005003c00e00f520028
:10911000c6003200e30f52007500320036013700fe
:10912000fa0f520092003200fb0f5200d9003200b9
:1091300031013700a5022000850f520019003200ce
:10914000a5022000850f520007003c0055022000b8
:10915000850f52003b00320085022000850f52002f
:109160000800320024013700f5022000850f52006c
:10917000c8003200d50f2000850f5200cc0032000d
:109180001d0137004d01070000427800e04f5200fa
:109190001d013a0000c2eb000440780057ebb70015
:1091a000240137001102070000427800e04f52000e
:1091b00017013a0000c2eb000440780057ebb700fb
:1091c0001c013700e45c8000e10f520004003a000b
:1091d00000c2eb000440780057ebb70015013700e0
:1091e000e4b620001442780004407800a1ebb700f8
:1091f000f4b620001442780004407800a0ebb700d9
:10920000045d8000050020000400be004903070043
:1092100000427800e04f5200ff003a004002200078
:109220000601070042022000213c2800608820003f
:10923000cfdc0700d4cfb3000440780057ebb70071
:10924000fc003700d45e8000040001000002be0074
:109250003407980045079800e45e80000400010090
:1092600000027800050020001407980025079800e8
:109270001e4a90000440780086e8b7000e4a90002d
:109280000440780087e8b7007e42900004407800f0
:1092900088e8b7006e4290000440780089e8b70083
:1092a0005e429000044078008ae8b7004e42900089
:1092b000044078008be8b7003e42900004407800fc
:1092c0008ce8b7002e429000044078008de8b7008b
:1092d00084002000045d880080002000d700070083
:1092e000d4cfb3000440780057ebb700d10037006b
:1092f000e45c8000e10f520004003a0000c2eb0081
:109300000440780057ebb700ca0037002401200062
:10931000045d880020012000c80007000042eb0027
:10932000044f78000b0037001e4278000483fb00d6
:109330001e4078008082fb00d4b7200004824200e7
:10934000144278006588200085024300844a780032
:109350001e4fe8001e427800f14f5200f2ff360027
:10936000d4cfb3000440780057ebb700b10037000a
:1093700034c0b3000440780086e8b7000042eb0038
:109380000440780087e8b700145f80000400010003
:1093900000427800e04f52000200320004c8b300df
:1093a000010037000042eb000440780088e8b70075
:1093b0000042eb000440780089e8b7004400200038
:1093c000045d8800400020009c000700d4cfb3005b
:1093d0000440780057ebb700960037007f0ba800d9
:1093e0007f2ba9007f4ba8007f6ba90004c2b300ac
:1093f0000440780089ebb7000042eb00044078009d
:109400008aebb70014c0b3000440780084e8b700ca
:109410006022b800044488001544880000c2eb00b4
:109420000440780057ebb700820037006000b800b6
:10943000c002070000427800e04f520078003a0076
:10944000f4b72000144278006f426200e64f5200e9
:1094500008003a004488200014427800e14f52008e
:1094600004003a0000c2eb000440780057ebb7005c
:1094700070003700640207006022b80004448800ce
:109480001544880000c2eb000440780057ebb70099
:10949000680037006022b800044488001544880042
:1094a00000c2eb000440780057ebb70061003700c2
:1094b000a45c8000e00f520006003200a45c800033
:1094c000940278000400280004826200e00f520039
:1094d00055003a00265b8000375b8000f4032000d3
:1094e00005002000840f5300858f5b000b003600c1
:1094f00004c4b30014479800265b8000375b8000eb
:1095000004fc2f00f5ff2f000602420087824a006c
:10951000245b8800355b880006003700245b8000f0
:10952000355b8000144798006022b800245b8800f7
:10953000355b8800055d80001e4290000482fb00c0
:10954000848f520006003900055d80001e429000a5
:109550000482fb0004825200045d8800150037007d
:109560000042eb00044f78000e003700045d8000dd
:10957000e00f520004003200045d80000402e900a4
:10958000045d8800060037001e4278008482fb00dc
:1095900064882000848242000042eb00844a780004
:1095a0001e4fe8001e4290009e42780084cf520079
:1095b000eeff3900648820009e419000040178008d
:1095c00011c0b30010c0b30002de07000002780033
:1095d000a45c8800245b8000355b8000e00f5200b3
:1095e000e08f5a0012003a0000c2eb0004407800fd
:1095f00057ebb7000f003700f0c7b300cd020700ec
:10960000000000000b0037000000000009003700d8
:1096100000000000070037000000000005003700d0
:1096200000000000030037000000000001003700c8
:10963000000000000080fa00000006000200fa00ae
:10964000000f7800265b8000375b80001e027800e8
:1096500005002000840f5300858f5b000800310057
:109660006022b8000444880015448800245b800010
:10967000355b800004027800045d88000d0037002f
:10968000045d80009e0f5200020036001e0278002a
:10969000045d8800265b8000375b8000045d8000ed
:1096a000050020000402530085825b00044488000a
:1096b000154488000080fa00000006000000fa004f
:1096c00084b52000144278000482fb00cfa2de00a3
:1096d0004600200007002000860f5200878f5a00a6
:1096e000ae003e000460010004003700290037008e
:1096f000350037007500370080003700d4b62000f1
:109700001442780004407800a5ebb700e4b62000ce
:109710001442780004407800a4ebb700f4b62000af
:109720001442780004407800a3ebb70004b720008f
:109730001442780004407800a2ebb70024b7200060
:109740001442780004407800a1ebb70034b7200041
:109750001442780004407800a0ebb700045d80005c
:109760006123b800493add00c732de00850272008d
:109770004932dd000400be00ee010700004278001f
:10978000e04f52008f003a0014c0b300044078004c
:1097900058ebb700045d8000e00f520004003a006f
:1097a0000042eb000440780058ebb7008a00370015
:1097b000045d80000402e900045d880024c0b30059
:1097c0000440780058ebb700a45c8000e00f520022
:1097d00006003200a45c8000940278000400280097
:1097e00004826200e00f520078003a00075f8000b8
:1097f00066882000145d8000255d800006017800e9
:109800000400be000700010000427800e14f520052
:109810001f003200a5b520009542780034c6b30081
:1098200084cf520006003e00a4b520001442780008
:109830000442e800044078005aebb70066003700a5
:1098400024c0b3000440780084e8b7007f0ba80070
:109850007f2ba8007f4ba9007f6ba9000042eb0083
:109860000440780089ebb7000042eb000440780028
:109870008aebb70011c0b30010c0b300a2dd07002f
:109880000042eb000440780058ebb700520037006c
:10989000145d8000255d800061024200e0824a0084
:1098a000145d8800255d880004202000050020004c
:1098b000044488001544880064882000845c880083
:1098c00034c0b3000440780058ebb7000444800073
:1098d00015448000e00f5200e08f5a0004003a0067
:1098e00014c0b3000440780058ebb7003a003700ca
:1098f00044c0b3000440780058ebb700a45c80007b
:10990000e00f520006003200a45c80009402780050
:109910000400280004826200e00f52002d003a008b
:10992000845c800003c4b3000401780011c0b3005c
:1099300010c0b30027dd070000027800a45c880097
:1099400034c0b3000440780058ebb700265b8000b9
:10995000375b800004fc2f00f5ff2f000602420059
:1099600087824a00245b8800355b880006448000bb
:109970001744800004fc2f00f5ff2f000602420070
:1099800087824a000444880015448800845c800073
:109990000404b000845c88000f00370024c0b300ca
:1099a0000440780084e8b70011c0b30010c0b300d1
:1099b00055dd07000042eb000440780058ebb7008b
:1099c0000500370000000000030037000000000021
:1099d000010037000000000084b520001442780028
:1099e000044078000080fa00000006000000fa0041
:1099f000881f780094b52000144278000482fb0090
:109a0000cfa2de004600200007002000860f520093
:109a1000878f5a00e7003e00046001000400370011
:109a200044003700a700370052003700810037009c
:109a3000d4b620001442780004407800a5ebb700ab
:109a4000e4b620001442780004407800a4ebb7008c
:109a5000f4b620001442780004407800a3ebb7006d
:109a600004b720001442780004407800a2ebb7004d
:109a700024b720001442780004407800a1ebb7001e
:109a800034b720001442780004407800a0ebb700ff
:109a9000045d80006123b800493add00c732de0072
:109aa000850272004932dd000400be00210107007a
:109ab00000427800e04f5200c8003a00145f800076
:109ac0000400010000427800e04f5200160032000e
:109ad00014c0b3000440780084e8b7007f0ba800ee
:109ae0007f2ba8007f4ba8007f6ba90074c2b30036
:109af0000440780089ebb7000042eb000440780096
:109b00008aebb7008040eb0010c0b300fedc07001a
:109b10000042eb000440780059ebb70094b52000f8
:109b200014427800b400370014c0b3000440780039
:109b300056ebb700045d8000e00f520004003a00cd
:109b40000042eb000440780059ebb700a800370052
:109b500034c0b3000440780059ebb700648820009b
:109b6000845c880004202000050020000444880054
:109b7000154488000444800015448000e00f520022
:109b8000e08f5a0015003200945c8000e00f520014
:109b900006003200945c80009402780004002800e3
:109ba00004826200e00f52008e003a00845c800064
:109bb00003c4b300040178008040eb0010c0b30080
:109bc00084dc070000027800945c880044c0b30085
:109bd0000440780059ebb70016003700145f80008e
:109be0000400010000427800e04f52000d003200f6
:109bf00014c0b3000440780084e8b7007f0ba900cc
:109c00007f2ba8007f4ba9007f6ba90074c2b30013
:109c10000440780089ebb7000042eb000440780074
:109c20008aebb70024c0b3000440780059ebb700ba
:109c30006f003700945c8000e00f52000600320095
:109c4000945c800094027800040028000482620082
:109c5000e00f520065003a00265b8000375b800011
:109c6000945c8000144278000482fb000500200010
:109c70000402530085825b00245b8800355b88000a
:109c80000644800017448000945c800014427800f1
:109c90000482fb00050020000402530085825b0063
:109ca0000444880015448800845c80000404b000eb
:109cb000845c880034c0b3000440780059ebb700de
:109cc0004b0037004488200014427800e04f5200d7
:109cd0002b003a00285f8000145d8000255d800025
:109ce0000502720004f0a7000402ea000402e90081
:109cf0004f22de000443780067882000145d800056
:109d0000255d800086417800070178000400be00d0
:109d10000800010000427800e14f520018003200b4
:109d2000a5b520009542780034c6b30084cf520018
:109d300006003e00a4b52000144278000442e8006a
:109d4000044078005aebb7002900370014c0b30074
:109d50000440780084e8b7007f0ba8007f2ba800a0
:109d60007f4ba9007f6ba9000042eb000440780004
:109d700089ebb7000042eb00044078008aebb700a3
:109d8000145d8000255d800061024200e0824a008f
:109d9000145d8800255d8800045d80000402e900f0
:109da000045d880014c0b3000440780059ebb7008c
:109db0000f00370024c0b3000440780084e8b700e7
:109dc0008040eb0010c0b3004fdc07000042eb0006
:109dd0000440780059ebb700050037000000000090
:109de0000300370000000000010037000000000001
:109df00094b5200014427800044078004f047800a5
:109e00000080fa00000006000000fa00d5b720002c
:109e10009542780004c8b30084c2620004c7b3004e
:109e200004c27200044078007debb7007deba9000e
:109e30000042eb00044078007eebb7007f0ba900e6
:109e40007f2ba9007f4ba9007f6ba9007faba900e6
:109e50007fcba9007feba9000042eb000440780013
:109e600080ebb7000042eb000440780081ebb700c4
:109e70000042eb000440780082ebb7000042eb00a8
:109e80000440780083ebb700a4c0b300044078001e
:109e900084ebb70054b8200014427800604262009e
:109ea0000440780085ebb70064b8200014427800c5
:109eb000604262000440780086ebb70074b820006e
:109ec00014427800604262000440780087ebb700db
:109ed00084b8200014427800604262000440780098
:109ee00088ebb7000042eb000440780089ebb70034
:109ef0000042eb00044078008aebb7000042eb0020
:109f0000044078008bebb7000042eb00044078007f
:109f10008cebb7000042eb00044078008debb700fb
:109f20000042eb00044078008eebb7000080fa009e
:109f3000000006000a00fa00300798004107980068
:109f40003e029000ce029000e00f5200e08f5a00d7
:109f500003003a0014002000240798000200370094
:109f60000002eb0024079800e45c8000e10f52003f
:109f700005003a002e029000e10f520002003a0064
:109f80000042eb0068003700265b8000375b8000f2
:109f90003e029000ce029000840f5300858f5b003c
:109fa00012003a0064b5200014427800e14f5200dc
:109fb00007003a0075b5200095427800a4c2b300ae
:109fc00084cf5200090032000042eb0056003700f7
:109fd00075b5200095427800a4c2b30084cf52002a
:109fe00002003a000042eb004f003700265b800081
:109ff000375b80003e029000ce029000840f530039
:10a00000858f5b00030036001400200014079800c1
:10a01000020037000002eb001407980064b520002e
:10a0200014427800e24f520020003a0075b520003b
:10a0300095427800a4c2b30084cf520006003200db
:10a040002e029000e00f520003003a0054c0b3000b
:10a05000044f780031003700e45c8000e10f5200cb
:10a0600003003a0014c0b300044f78002b003700ff
:10a070002e029000e10f520003003a0044c0b300ea
:10a08000044f7800250037001e029000e10f5200b7
:10a0900003003a0044c0b300044f78001f003700ab
:10a0a00054c0b300044f78001c00370075b5200081
:10a0b00095427800a4c2b30084cf520003003a0056
:10a0c00034c0b300044f780014003700e45c800013
:10a0d000e10f520003003a0014c0b300044f7800af
:10a0e0000e0037002e029000e10f520003003a00ec
:10a0f00024c0b300044f7800080037001e0290000f
:10a10000e10f520003003a0024c0b300044f78006e
:10a110000200370034c0b300044f78001e407800be
:10a12000040007001e427800044078000080fa0016
:10a13000000006000400fa0020479800a45c80009c
:10a14000e00f520006003200a45c80009402780008
:10a150000400280004826200e00f520067003a0009
:10a16000945c8000e00f520006003200945c800096
:10a17000940278000400280004826200e00f52007c
:10a1800060003a0056cbbf00004f780000c2eb00e1
:10a190000440780057ebb7000042eb000440780021
:10a1a00058ebb7000042eb000440780059ebb700d1
:10a1b000245b8000355b80000444880015448800df
:10a1c00014c0b3000440780084e8b70034c0b30082
:10a1d0000440780056ebb7002e4290000482fb004a
:10a1e000e30f520017003200e30f520005003c005d
:10a1f000e10f52000b003200e20f52000d0032005e
:10a2000041003700e50f520019003200e50f5200ff
:10a2100013003500f5072000850f52001b003200a7
:10a220003900370024c0b3000440780084e8b70048
:10a230003500370011c0b30010c0b30032db070097
:10a240003100370024c0b3000440780084e8b70030
:10a2500011c0b30010c0b3002bdb07002a00370089
:10a260008040eb0010c0b30027db0700260037005a
:10a2700024c0b3000440780084e8b7008040eb00bd
